:100000000C94B8030C94FF030C94FF030C94FF03AF
:100010000C94FF030C94FF030C94FF030C94FF0358
:100020000C94FF030C94FF030C94D3200C94A52193
:100030000C945A1A0C94FF030C94FF030C94FF03C6
:100040000C94FF030C94FF030C94FF030C94FF0328
:100050000C94FF030C94B31A0C94FF030C94FF034D
:100060000C94FF030C94FF030C94FF030C94FF0308
:100070000C94FF030C94FF030C94FF030C94FF03F8
:100080000C94FF030C94FF030C94FF030C94FF03E8
:100090000C94FF030C94FF030C94FF030C94FF03D8
:1000A0000C94FF030C94FF030C94FF03C30FC30FC6
:1000B000F50FF50F42106010811181116B100011C6
:1000C000111111117111811181117A112112211255
:1000D000331233122A123312331233122112211225
:1000E0002F12331233122F121222392231233922C6
:1000F00031238522A8223123FF220E2314001A0067
:100100000800150017001C0018000C001200130056
:1001100004001600070009000A000B000D000E0085
:100120000F0033001D001B00060019000500110020
:1001300010003600370038000000000029002C00B5
:100140002B0028002A00E10000000000010001004F
:100150000100010001000100010001000100010097
:100160000100010001000100010001000100010087
:100170000100010001000100010001000100010077
:100180000100010001000100000000000100010069
:100190000100010001000100000000000100010059
:1001A0000100010001000100010001000100010047
:1001B0000100010001000100010001000100010037
:1001C0000100010001000100010001000100010027
:1001D0000100010001000100000000000100010019
:1001E0000100010001000100000000000100010009
:1001F00001000100010001000100010001000100F7
:1002000001000100010001000100010001000100E6
:1002100001000100010001000100010001000100D6
:1002200001000100010001000000000001000100C8
:1002300001000100010001000000000001000100B8
:1002400001000100010001000100010001000100A6
:100250000100010001000100010001000100010096
:100260000100010001000100010001000100010086
:100270000100010001000100000000000100010078
:100280000100010001000100000000000100010068
:100290000100010001000100010001000100010056
:1002A0000100010001000100010001000100010046
:1002B0000100010001000100010001000100010036
:1002C0000100010001000100000000000100010028
:1002D0000100010001000100000000000100010018
:1002E0000100010001000100010001000100010006
:1002F00001000100010001000100010001000100F6
:1003000001000100010001000100010001000100E5
:1003100001000100010001000000000001000100D7
:1003200001000100010001000000000001000100C7
:1003300001000100010001000100010001000100B5
:1003400001000100010001000100010001000100A5
:100350000100010001000100010001000100010095
:100360000100010001000100000000000100010087
:100370000100010001000100000000000100010077
:100380000100010001000100010001000100010065
:100390000100010001000100010001000100010055
:1003A0000100010001000100010001000100010045
:1003B0000100010001000100000000000100010037
:1003C0000100010001000100000000000100010027
:1003D0000100010001000100010001000100010015
:1003E0000100010001000100010001000100010005
:1003F00001000100010001000100010001000100F5
:1004000001000100010001000000000001000100E6
:1004100001000100010001000000000001000100D6
:1004200001000100010001000100010001000100C4
:1004300001000100010001000100010001000100B4
:1004400001000100010001000100010001000100A4
:100450000100010001000100000000000100010096
:100460000100010001000100000000000100010086
:100470000100010001000100010001000100010074
:100480000100010001000100010001000100010064
:100490000100010001000100010001000100010054
:1004A0000100010001000100000000000100010046
:1004B0000100010001000100000000000100010036
:1004C0000100010001000100010001000100010024
:1004D0000100010001000100010001000100010014
:1004E0000100010001000100010001000100010004
:1004F00001000100010001000000000001000100F6
:1005000001000100010001000000000001000100E5
:1005100001000100010001000100010001000100D3
:1005200001000100010001000100010001000100C3
:1005300001000100010001000100010001000100B3
:1005400001000100010001000000000001000100A5
:100550000100010001000100000000000100010095
:100560000100010001000100010001000100010083
:100570000100010001000100010001000100010073
:100580000100010001000100010001000100010063
:100590000100010001000100000000000100010055
:1005A0000100010001000100000000000100010045
:1005B0000100010001000100010001000100010033
:1005C0000100010001000100010001000100010023
:1005D0000100010001000100010001000100010013
:1005E0000100010001000100000000000100010005
:1005F00001000100010001000000000012036B0077
:100600006500790062006F00610072006400000004
:10061000160371006D006B006200750069006C00CC
:1006200064006500720000000403090409023B0035
:10063000020100A0FA0904000001030101000921E0
:10064000110100012240000705810308000A090486
:100650000100010300000009211101000122B60080
:100660000705820320000A1201100100000008EDB6
:10067000FE606001000102000105010902A101857F
:10068000020901A100050919012908150025019594
:1006900008750181020501093009311581257F9511
:1006A000027508810609381581257F950175088135
:1006B00006050C0A38021581257F9501750881060B
:1006C000C0C005010980A101850319012AB70015E1
:1006D0000126B700950175108100C0050C0901A124
:1006E00001850419012AA002150126A002950175B1
:1006F000108100C005010906A1018505050719E063
:1007000029E71500250195087501810205071900E3
:1007100029EF1500250195F07501810205081901E1
:100720002905950575019102950175039101C00593
:10073000010906A101050719E029E7150025019522
:1007400008750181029501750881010507190029C5
:10075000FF150026FF0095067508810005081901A0
:100760002905950575019102950175039101C00058
:1007700011241FBECFEFDAE0DEBFCDBF04B603FE0B
:1007800027C08091790290917A02A0917B02B0916A
:100790007C028730904BA740B04BD1F41092790285
:1007A00010927A0210927B0210927C0214BE84B7DF
:1007B000877F84BF0FB6F894A89580916000886108
:1007C00080936000109260000FBEE0E0F8E30995AE
:1007D00011E0A0E0B1E0EEEAF7E402C005900D926E
:1007E000A638B107D9F722E0A6E8B1E001C01D9212
:1007F000A937B207E1F70E940B1E0C94D5230C9485
:1008000000000895089581E00895089581E0089515
:100810000C94030408950C940A041F93CF93DF9360
:1008200000D000D01F92CDB7DEB749835A836B83C7
:100830003091B30189819A81311114C0662359F036
:10084000222349F00E945A17182F682F89819A8114
:100850000E94031703C00E942E17182F69817A8106
:10086000812F04C00E945A1769817A810F900F90DE
:100870000F900F900F90DF91CF911F910C94BE04B9
:10088000FC01262F408151816281738184810C9407
:100890000D04CF93DF93EC0160E00E944004BE01A1
:1008A000DF91CF910C940B040E948E18811102C02D
:1008B0000E943F190C94DC060C94DA0608950E94FD
:1008C0000F120E945E042FEF84E39CE021508040D1
:1008D0009040E1F700C000000C94D91A0F931F93C9
:1008E000CF93DF93EC0161E00E9440048C01BE01D4
:1008F0000E940804882349F1BE01C8010E940C0B24
:10090000882319F1BE01C8010E945E0B8823E9F01B
:10091000BE01C8010E94890C8823B9F08A8188230E
:1009200069F001158CE5180731F00F3D1C4531F4D5
:100930000E943F190AC00E945F0407C0CE01DF91E8
:10094000CF911F910F910C94060480E0DF91CF911D
:100950001F910F9108950C94050481E008950C9463
:10096000AD04CF93C82F0E94AB048C2F0E94AF041C
:10097000CF91089580E090E00895089528E2829F45
:10098000C0011124FC012AE0729FE00DF11D112429
:10099000E60FF11DEE0FFF1FE450FF4F859194917C
:1009A0000895880F991FFC01E450FA4F85919491A6
:1009B0000895CF93DF930E94BE040E94F105EC01DD
:1009C0008115904508F041C0C11580E4D80708F0B2
:1009D000D1C0C83ED10510F5C03ED10508F0FDC01C
:1009E000C83AD10578F4C53AD10508F0A2C0C130A3
:1009F000D10509F4F2C008F4EEC0C430D10508F006
:100A0000ECC0E9C0CF3BD10508F49BC0C03CD10588
:100A100008F4E1C0CE01805C91099EC0C11590E24E
:100A2000D90758F4C11521E0D20708F0D6C0CD3E51
:100A3000D10508F4D0C0D065D0C0C11580E3D80777
:100A400008F08EC0CE019F7087C0C11595E5D9070B
:100A500008F043C0C11524E5D20708F0A2C0C115B3
:100A600082E5D80708F5C11591E5D90708F085C0DA
:100A7000CE0174E0969587957A95E1F783709C2F67
:100A8000937021E030E002C0220F331F9A95E2F705
:100A90003C68382BCF70C695C69580E2C89FE001B0
:100AA0001124C22BD32B99C09E01237033278C2F86
:100AB00086958695C115D34508F064C0C1E0D0E0A5
:100AC00002C0CC0FDD1F2A95E2F720E2829FC00111
:100AD0001124C82BD92BDC6880C0C11529E5D207A9
:100AE000A0F4C11588E5D80708F060C0C11596E5E7
:100AF000D90708F070C08C2F0E9485068F71C82F0F
:100B0000D0E0DC2FCC27D06268C0C1152AE5D2071F
:100B100008F451C0CE0190568115904208F05BC098
:100B20008D2F8F710E948506DD27D0628F71D82BA3
:100B300054C0C55AD0E0CD5BDE4FC881D0E0D06450
:100B40004CC0C85AD0E0CC0FDD1FCB5EDE4F099001
:100B5000D881C02DD46441C00E94D104EC013DC0B5
:100B6000CE019927D3FF03C0EC01D86C36C0EC014D
:100B7000D06C33C0DF70D06A30C0DC2FCC27C16F9F
:100B8000D06A2BC0C1E0D0E002C0CC0FDD1F2A9597
:100B9000E2F720E2829FC0011124C82BD92BDA682A
:100BA0001CC0DC2FCC27C46FD06A17C0DC2FCC2729
:100BB000C06FD06A12C08C2F8F700E94850694E09F
:100BC000D695C7959A95E1F7CF70D0E0DC2FCC276A
:100BD000D069C82B02C0C0E0D0E0CE01DF91CF9138
:100BE00008958238910569F1B0F48133910509F4D3
:100BF0006DC048F48932910509F463C08A329105C9
:100C000009F469C008958533910509F455C0893305
:100C10009105B9F00895833E910569F138F4803E5D
:100C20009105B1F0823E910509F10895863E910546
:100C3000A9F1873E9105B9F1843E910509F064C0A0
:100C400023C020916A0220FD4FC021FD4DC00895B0
:100C500080916A0280FD44C080916B0280FF44C095
:100C600080916A0284FD42C083EE4DC080916A0289
:100C700082FF38C0F5CF80916A0282FD33C0809137
:100C80006B0280FD31C0ECCF80916B0281FF32C0DE
:100C900080916A0284FD2AC087EE35C080916A0285
:100CA00083FF26C0F5CF80916A0283FD21C0809129
:100CB0006B0281FD1FC0ECCF80916A0285FD1CC0D4
:100CC0001DC080916A0285FD19C016C080916A021C
:100CD00086FD16C017C080916A0286FD13C010C041
:100CE00089E311C082EE0FC080EE0DC080E00BC022
:100CF00086EE09C084EE07C089E205C085E303C023
:100D00008AE201C081E390E0089590916A0292FF27
:100D10000DC0282F2871283019F4877F846006C001
:100D2000282F2471243011F48B7F886093FF0DC02D
:100D3000282F2871283119F4877E846106C0282F56
:100D40002471243111F48B7E886120916B0220FF85
:100D50000DC0382F3871383019F4877F816006C094
:100D6000382F3171313011F48E7F886021FF0DC032
:100D7000282F2871283119F4877E816106C0282F19
:100D80002171213111F48E7E886194FD877E089552
:100D9000E82FF0E0EE0FFF1FE25AFD4F80819181B6
:100DA0000895089580EA8A95F1F7089500C008959E
:100DB0000C94D2060C9402040C940104F894E82FCD
:100DC000E295EF70F0E031A1282F2F7081E090E0E4
:100DD00001C0880F2A95EAF7982F9095932391A345
:100DE00092A1892B82A3789408950F931F93CF9398
:100DF000DF9386E60E94DE0684E90E94DE0680E933
:100E00000E94DE0681E90E94DE06C6E4D1E000E52C
:100E100011E089910E94DE060C171D07D1F7109290
:100E200057021092560210925F0210925E021092C8
:100E300059021092580210926102109260021092B0
:100E40005B0210925A021092630210926202109298
:100E50005D0210925C02109265021092640284E0BE
:100E60000E94CB07DF91CF911F910F910C945404F6
:100E70007F928F929F92AF92BF92CF92DF92EF922A
:100E8000FF920F931F93CF93DF9306E512E080E567
:100E9000E82E81E0F82EC0E0D0E0712CAA24A394C3
:100EA000B12C4701F7018081F894E82FE295EF70AB
:100EB000F0E021A18F70A50102C0440F551F8A9553
:100EC000E2F7CA01922F982B91A392A180958923D2
:100ED00082A378940E94D606E6E4F1E020E030E0B8
:100EE000C12CD12C4191A42FA295AF70B0E0909667
:100EF0008C9190E04F7002C0959587954A95E2F7E6
:100F000080FD08C0C501022E02C0880F991F0A94F7
:100F1000E2F702C080E090E0C82AD92A2F5F3F4F55
:100F20002A303105F9F65FEFE51AF50AF401808100
:100F30000E94DE06C330D10511F00E94D806F801E8
:100F400080819181C816D90621F0D182C08281E0CA
:100F500001C080E0782A21960E5F1F4FC430D10572
:100F600009F09FCF272D44E06EE572E086E592E020
:100F70000E94CC070E945C04872DDF91CF911F91C6
:100F80000F91FF90EF90DF90CF90BF90AF909F9028
:100F90008F907F9008950895FF920F931F93CF93A2
:100FA000DF93F82E092F162FD72FC42F222349F0B5
:100FB00081E080938A010E948C1A9093890180932A
:100FC000880180918A018823D9F0809188019091CD
:100FD00089010E94A41A069798F0EF2DF02FA12FF7
:100FE000BD2F80E090E04C2F50E08417950734F43B
:100FF000219131912D933D930196F7CF10928A0163
:10100000DF91CF911F910F91FF90089580919101F1
:1010100080FF0BC06091050185E0689FB00111243D
:1010200075956795759567952BC081FF09C060918F
:10103000050185E0689FB00111247595679520C072
:1010400082FF07C06091050185E0689FB00111240F
:1010500017C0909190019923D1F0609104019617E7
:1010600088F72091050185E0289F90011124929F27
:10107000A001939F500D112470E0CA010E946523C6
:101080006038710540F46115710519F406C065E01A
:1010900070E0862F08958FE7089581E0089580918C
:1010A000910180FF08C06091010170E0759567951E
:1010B0007595679521C081FF06C06091010170E0C0
:1010C0007595679519C082FF04C06091010170E0B9
:1010D00010C090918F01992399F0609100019617AB
:1010E000A0F780910101899FC001112470E00E9446
:1010F00065236038710540F46115710519F406C067
:1011000061E070E0862F08958FE7089581E00895EB
:101110008D3E21F40E940608819504C08E3E29F47C
:101120000E9406088093950108958F3E21F40E9445
:101130000608819504C0803F29F40E940608809328
:1011400094010895893F19F40E944F0805C08A3F11
:1011500031F40E944F0881958093960108958B3F4A
:1011600021F40E944F08819504C08C3F29F40E940D
:101170004F088093970108959FE0980F983078F476
:1011800021E030E0A90102C0440F551F9A95E2F713
:10119000CA0190919301892B8093930108958D3F0B
:1011A00021F48091910181600BC08E3F21F48091E8
:1011B0009101826005C08F3F29F480919101846084
:1011C0008093910108958D3E39F49091950197FF98
:1011D00035C01092950159C08E3E29F49091950129
:1011E0001916BCF32BC0909194018F3E29F497FF00
:1011F00025C01092940149C0803F19F41916CCF310
:101200001DC090919601893F29F41916BCF41092E3
:1012100096013BC08A3F19F497FF10C0F8CF8B3F6F
:1012200039F49091970197FF09C0109297012DC052
:101230008C3F21F4909197011916BCF39FE0980F11
:10124000983080F421E030E0A90102C0440F551F1E
:101250009A95E2F7CA018095909193018923809332
:10126000930113C08D3F21F4809191018E7F0BC0BB
:101270008E3F21F4809191018D7F05C08F3F29F42D
:10128000809191018B7F80939101809194018111D4
:1012900006C080919501811102C010929001809149
:1012A0009601811106C080919701811102C01092B0
:1012B0008F0108950E948C1A20919401211104C07D
:1012C00020919501222321F090938E0180938D012E
:1012D00020919601211104C020919701222321F031
:1012E00090938C0180938B0182E991E00C94E50C42
:1012F000EF92FF920F931F93CF93DF9300D000D014
:1013000000D0CDB7DEB786E0E2E9F1E0DE0111966C
:1013100001900D928A95E1F7E0909401F09095018B
:1013200000919601109197011092940110929501ED
:101330001092960110929701E11003C0FF2009F46A
:101340005DC080918D0190918E010E94A41AAC0124
:1013500090919001992339F02091060130E02417F3
:10136000350758F04BC0209107018AE0289F900173
:1013700011242417350718F041C09F3F19F09F5FD3
:1013800090939001EE2061F00E9406081E1414F064
:101390009FEF01C091E0989F902D112490939401AC
:1013A000FF2061F00E9406081F1414F09FEF01C097
:1013B00091E0989F902D1124909395013091940184
:1013C0003323E1F0209195012223C1F045EB340352
:1013D000C0011124992319F09093940103C081E076
:1013E0008093940135EB2303C0011124992319F054
:1013F0009093950103C081E080939501011103C092
:10140000112309F45DC080918B0190918C010E94A1
:10141000A41AAC0190918F01992339F02091020117
:1014200030E02417350758F04BC0209103018AE0C3
:10143000289F900111242417350718F041C09F3FC1
:1014400019F09F5F90938F01002361F00E944F0875
:10145000101614F09FEF01C091E0989F902D112479
:1014600090939601112361F00E944F08111614F019
:101470009FEF01C091E0989F902D112490939701C8
:10148000309196013323E1F0209197012223C1F09E
:1014900045EB3403C0011124992319F09093960170
:1014A00003C081E08093960135EB2303C001112432
:1014B000992319F09093970103C081E080939701DD
:1014C0008091940181110BC080919501811107C019
:1014D00080919601811103C08091970181110E9432
:1014E0005A09EB82FC820D831E8386E0FE01319651
:1014F000A2E9B1E001900D928A95E1F726960FB628
:10150000F894DEBF0FBECDBFDF91CF911F910F9139
:10151000FF90EF900895E2E9F1E086E0DF011D928F
:101520008A95E9F71092900110928F011092910123
:1015300008950F931F93CF93DF93C42FD22FFC01F5
:1015400082818823C9F040939A010E948C1A90935B
:1015500099018093980180E28C0F883008F057C081
:10156000C77081E001C0880FCA95EAF7DF91CF917B
:101570001F910F910C94820F80919A01481330C0F3
:1015800080919801909199010E94A41A883C91053C
:1015900038F510E21D0FCD17B9F080E28C0F8830BE
:1015A00040F4C77081E001C0880FCA95EAF70E9435
:1015B000890F183028F581E09D2F977001C0880FA2
:1015C0009A95EAF70E94820F802F0E94790F1830B7
:1015D000F0F4D77081E001C0880FDA95EAF70AC00D
:1015E00080E28C0F883098F4C77081E001C0880FCA
:1015F000CA95EAF7DF91CF911F910F910C94890F53
:10160000802FDF91CF911F910F910C94790FDF9173
:10161000CF911F910F9108950F939C01CB01243F0F
:101620004CE5340731F188F4293DFCE53F07D9F05A
:101630002A3D4CE5340779F1283D3C45A9F506E201
:1016400021EE41EE68ED7CE52BC0263FFCE53F072F
:10165000E1F0A8F0273F3C4539F507E225EE46EEDC
:1016600067EF7CE51DC007E225EE45EE69ED7CE500
:1016700017C006E221EE40EE64EF7CE511C007E200
:1016800025EE44EE65EF7CE50BC006E221EE42EE6E
:1016900066EF7CE505C008E221E045EE6AED7CE5F9
:1016A0000E94990A80E008C0FC018281882319F019
:1016B00010929A0101C081E00F910895CF93DF93BA
:1016C000EC01FB018281882309F41FC1C230FCE5D3
:1016D000DF0708F41BC1C6319CE5D90738F09E012D
:1016E0002B5F3C452930310508F010C10E94AB1832
:1016F00090936B0280936A02C031ECE5DE0709F437
:10170000C3C008F041C0C8308CE5D80709F49AC0BE
:10171000F0F4C430ECE5DE0709F487C068F4C230A9
:101720008CE5D80709F477C0C330DC4509F0E3C085
:1017300080916A02826076C0C630ECE5DE0709F46B
:101740006EC008F07BC080916A0288606BC0CC30AC
:101750008CE5D80709F485C068F4CA30ECE5DE07EB
:1017600009F474C008F079C00E940F1280916A02D7
:10177000806858C0CE308CE5D80709F476C008F0F0
:101780007FC080916A028BC0CC3FECE5DE0709F494
:101790004FC018F5C3318CE5D80709F47DC078F443
:1017A000C131ECE5DE0709F473C0C231DC4509F054
:1017B000A2C00E940F1280916A028F7733C0C53198
:1017C0008CE5D80709F472C008F486C0CB3FDC452D
:1017D00009F091C080916B023EC0C115FDE5DF07A5
:1017E00009F45FC058F4CE3F9CE5D90709F444C022
:1017F00008F43FC080916B0282602DC0C230FDE5CD
:10180000DF0709F475C008F45DC0C330DD4509F099
:1018100072C080E06EC080916A02816003C08091D6
:101820006A02806180936A0266C080916A0211C078
:1018300080916B02826080936B025DC080916A022E
:101840008062F0CF80916A028064ECCF80916A025E
:1018500088608460E7CF8160EECF80916A028E7FDE
:10186000E1CF80916A028D7FDDCF80916A02877F10
:10187000D9CF80916B0218C080916B028D7FDBCF36
:1018800080916A028F7ECECF80916A028F7DCACF0F
:1018900080916A028F7BC6CF80916A02877F8B7F9F
:1018A000C1CF80916B028D7F8E7FC5CF80916A0200
:1018B00082FB222720F991E0922790FB82F990FB8E
:1018C00083F9B0CF80916B02982F909591708E7FA5
:1018D000892B90FB81F9AFCF0E940F1280916A0291
:1018E00087FB222720F991E0922790FB87F99ACF76
:1018F00081E00E94411980916A0290916B020E94DE
:10190000BC180E940F1280E001C081E0DF91CF91EE
:101910000895CF93DF9386319C4541F5EB010E94FA
:10192000DB17982F8A8120910801309109018823C3
:1019300079F09A7A81E009F480E080939B0191111B
:1019400002C069E201C065E3C9010E94DC190AC056
:1019500080919B01811102C069E201C065E3C90168
:101960000E94E7190E94291880E001C081E0DF9100
:10197000CF9108959093A1018093A0010895E091E3
:10198000A001F091A101309721F00190F081E02DAC
:10199000099480E00895E091A001F091A1013097B1
:1019A00099F020911401222359F020916A0227FF17
:1019B00007C0DC012C9111962C93119725E02C93F4
:1019C0000280F381E02D09940895E091A001F09147
:1019D000A101309739F022E0DC012C930480F581DD
:1019E000E02D0994089520919E0130919F012817C0
:1019F000390771F090939F0180939E01E091A001BF
:101A0000F091A101309721F00680F781E02D099433
:101A1000089520919C0130919D012817390771F09C
:101A200090939D0180939C01E091A001F091A10110
:101A3000309721F00084F185E02D099408950E94EB
:101A4000981A6093AF017093B0018093B1019093A5
:101A5000B2016093AB017093AC018093AD019093A0
:101A6000AE01089585B7806885BF85B7806885BF5A
:101A7000089581E008950C94390D08950C943D0D5E
:101A80000C943D0D0C94400D0C943D0D0C94440DA4
:101A90000C943D0D0E94320D8CE898E10E94FD1AD5
:101AA0000E94480D0C94460D0E94831A0E94F50670
:101AB0000E944E1B0C94420D6F927F928F929F92C8
:101AC000AF92BF92CF92DF92EF92FF920F931F934C
:101AD000CF93DF93CDB7DEB72A970FB6F894DEBF6A
:101AE0000FBECDBF0E943E0D0E943D0D0E943807E3
:101AF00081110E941F0D33EA832E31E0932E00E006
:101B000010E0C02E802F0E94C8065C01F401619095
:101B100071904F016826792661147104B1F40F5F4A
:101B20001F4F0430110569F78FEF89838A831B8269
:101B30000E948C1A8160782F9D838C8349815A8101
:101B40006B818D810E94160E3AC08091320281FD18
:101B50000E94D106D12CEE24E394F12CC3018E21F6
:101B60009F21892B29F10E943B0D8823A9F0DE8259
:101B7000CF82AE20BF2081E0AB2809F480E08887C7
:101B80000E948C1A8160782F9A8789874E815F81A5
:101B900068858A850E94160E000F111FF801ED5509
:101BA000FE4F80819181E826F926F182E08207C00C
:101BB000D394EE0CFF1CFAE0DF12D0CFB0CF0E941E
:101BC00078090E94BF0C9091A2018917D1F00E9460
:101BD000BF0C8093A2012A960FB6F894DEBF0FBE09
:101BE000CDBFDF91CF911F910F91FF90EF90DF90CC
:101BF000CF90BF90AF909F908F907F906F900C94FC
:101C0000B1042A960FB6F894DEBF0FBECDBFDF91A8
:101C1000CF911F910F91FF90EF90DF90CF90BF90E9
:101C2000AF909F908F907F906F900895DF92EF928A
:101C3000FF920F931F93CF93DF93CDB7DEB72B9710
:101C40000FB6F894DEBF0FBECDBFF42E052F162FB2
:101C5000E72ED82E61110E94FB17FE01319686E017
:101C6000DF011D928A95E9F77E2D4F2D502F612FB0
:101C70008D2D9E810E94C8142B960FB6F894DEBF5E
:101C80000FBECDBFDF91CF911F910F91FF90EF90CD
:101C9000DF900895FC01808191810E949C17089536
:101CA000CF93882309F4A4C0C82F8238C1F40E94BE
:101CB000BF0C81FD9DC069E38091080190910901ED
:101CC0000E94DC190E9429182FEF81EE94E0215028
:101CD00080409040E1F700C0000069E319C08338FC
:101CE00001F50E94BF0C80FD83C063E5809108016F
:101CF000909109010E94DC190E9429182FEF81EEB2
:101D000094E0215080409040E1F700C0000063E57E
:101D100080910801909109010E94E719CF910C94DC
:101D200029188438C1F40E94BF0C82FD61C067E4A9
:101D300080910801909109010E94DC190E942918E4
:101D40002FEF81EE94E0215080409040E1F700C0F9
:101D5000000067E4DDCF8CEF8C0F813AD0F46C2F5C
:101D600080910801909109010E945C19882349F033
:101D70006C2F80910801909109010E94E7190E943F
:101D800029186C2F80910801909109010E94DC199B
:101D9000C5CF80E28C0F883048F4C77081E001C065
:101DA000880FCA95EAF70E94DE17B8CFEBE5EC0F73
:101DB000E33040F4F0E0EE57FE4F808190E0CF91A9
:101DC0000C94F30CE8E5EC0FE73150F4F0E0EE0F83
:101DD000FF1FEC5AFE4F80819181CF910C94090D29
:101DE000CD3E30F08C2F0E948808CF910C945A0978
:101DF000CF910895882309F464C0823879F40E9451
:101E0000BF0C81FF5EC069E38091080190910901D8
:101E10000E94DC190E94291869E310C08338B1F4CC
:101E20000E94BF0C80FF4DC063E580910801909136
:101E300009010E94DC190E94291863E580910801BC
:101E4000909109010E94E7190C942918843879F4BB
:101E50000E94BF0C82FF35C067E480910801909119
:101E600009010E94DC190E94291867E4E7CF9CEF62
:101E7000980F913A10F4682FE1CF90E2980F9830C4
:101E800050F4877091E001C0990F8A95EAF7892F85
:101E90000E94E417D9CF9BE5980F933020F480E09F
:101EA00090E00C94F30C98E5980F973120F480E0C3
:101EB00090E00C94090D8D3E20F00E94E3080C94F4
:101EC0005A0908951F93CF93DF93182FEB010E94B7
:101ED000500E209741F08FE99FE00197F1F700C085
:101EE00000002197F6CF812FDF91CF911F910C94A5
:101EF000FA0E893319F060E070E002C060E570E02E
:101F00000C94620F882321F00E94DE170C9429188C
:101F10000895882321F00E94E4170C94291808954D
:101F2000CF92DF92EF92FF920F931F93CF93DF93A5
:101F30007C01062FC72FFC01D281158112951F70DD
:101F40000E94D417882399F0DD2389F08C2F807F9D
:101F5000803421F080E2800F883048F082E00E94D7
:101F600073180E94D41791E0D82ED92601C0D12C25
:101F7000CC2EC2948FE0C8228C2D90E0FC01EA5A4E
:101F8000FF4F0C9479238C2F807FCF70882311F022
:101F9000C295C07FDD2399F0CC2309F48DC180E286
:101FA000800F883010F0011104C08C2F0E94DE17C2
:101FB00003C08C2F0E94EE170E9429187DC1802F2C
:101FC0000E94FA0ECC2309F49CC180E2800F883075
:101FD00010F0011104C08C2F0E94E41703C08C2F55
:101FE0000E94F4170E9429188CC18C2F807FCF701B
:101FF000803211F0C295C07F002319F00130C9F082
:1020000022C0DD2371F0112341F0113031F40E9420
:102010000E188C2B0E94161874C10E940E188C2B5F
:102020001DC0112319F0113009F46BC10E941F1853
:1020300025C0DD2321F0163008F063C10EC0153035
:1020400008F05FC11BC0DD2361F0112331F0F701FF
:10205000858180FF31C18F7085838C2F0E94820F14
:1020600050C1112359F0093309F037C1FFEF27EEB2
:1020700083E0F15020408040E1F72DC18C2F0E9479
:10208000890F3FC18C2F86958695837019F081301A
:1020900061F037C1DD2321F0802F9C2F937002C0A7
:1020A00080E090E00E94F30C34C1DD2321F0802F0A
:1020B0009C2F937002C080E090E00E94090D29C11E
:1020C000802FDD2319F00E94880802C00E94E308D7
:1020D0000E945A091EC18C2F837009F045C0D1118E
:1020E00014C1402F429546954770440F440F602F0E
:1020F0006F70862F90E0A0E0B0E0042E04C0880F3F
:10210000991FAA1FBB1F0A94D2F704FF10C00FE04B
:1021100010E020E030E004C0000F111F221F331F29
:102120004A95D2F7009510952095309503C000E0B0
:1021300010E09801C695C695C370BC01CD01602B17
:10214000712B822B932BC23049F058F4C13019F017
:102150000E941916DAC00E940716D7C00E942B16DB
:10216000D4C00E940516D1C0DD2319F08C2F8170D8
:1021700001C08695882309F4C8C0402F4295469532
:102180004770440F440F602F6F70862F90E0A0E0DF
:10219000B0E0042E04C0880F991FAA1FBB1F0A9429
:1021A000D2F704FF10C00FE010E020E030E004C0E0
:1021B000000F111F221F331F4A95D2F7009510956B
:1021C0002095309503C000E010E09801C695C695B3
:1021D000C370BC01CD01602B712B822B932BC230BD
:1021E00049F058F4C13019F00E94DE168EC00E94EA
:1021F000CC168BC00E94F01688C00E943F1685C086
:10220000CF70DD2339F08C2F0E946516802F0E943D
:10221000820F7BC0802F0E94890F8C2F0E94861610
:1022200074C0023F01F128F4003F41F0013FA1F0EA
:102230003FC0033FF9F0043F39F13AC0DD2341F0DC
:10224000153008F05EC08C2F8F710E94AB1659C0FC
:10225000163008F056C0F7CFDD2339F08C2F8F7180
:102260000E9465164EC0DD23C9F38C2F8F710E942A
:10227000861647C0DD2329F08C2F8F710E945016DF
:1022800040C00E944B163DC0DD2349F0CF718C2F1A
:102290000E94651663E08C2F0E945E1832C081E0B8
:1022A0000E947318123068F182E00E94731829C0EE
:1022B000DD2331F0112391F2802F0E94500E21C0B6
:1022C000112399F2093349F49FEFE7EEF3E09150BF
:1022D000E040F040E1F700C00000802F0E94FA0EBD
:1022E00010C04C2F4F70602FC7010E94BA040E948B
:1022F00076150FC04C2F4F70602FC7010E94BD0490
:1023000008C088EF8C0D843020F40E94BF0C0E941E
:10231000B104DD20C9F00E94D01780FD15C0F7017F
:1023200012820E94CA170E946516C7010E94C51139
:102330000E94CA17DF91CF911F910F91FF90EF90EC
:10234000DF90CF900C948616DF91CF911F910F9163
:10235000FF90EF90DF90CF9008950F931F93CF934E
:10236000DF93EC01688179818A810E94A7178C0133
:102370000E9402170E94F315B801CE010E94900F2F
:10238000DF91CF911F910F910895CF93DF93EC01CF
:10239000988189812B813C81232B31F08F3F31F44F
:1023A00081E09F3F19F403C081E001C080E080FD1F
:1023B00019C0CE010E946E0481110CC00E94D41776
:1023C000882381F08A81882369F082E0DF91CF91B0
:1023D0000C947318CE010E94AD11CE01DF91CF9104
:1023E0000C944904DF91CF91089580E090E00E9421
:1023F000F30C80E090E00E94090D0E94FB170E9400
:102400000B180E9429180E948B0A0C945A0980917B
:102410000801909109010E94F2190C94F5110E9493
:10242000EB170C940712E92FE295EF704E2F50E056
:10243000FA013297EE30F105B0F4EA59FF4F0C94EF
:102440007923803F91F018F4883E68F40EC0843FF1
:1024500051F40BC0883E48F0813F29F406C093FB3D
:10246000882780F9089580E0089581E008950E940A
:102470009C170E9413120895CF93DF9300D000D0D1
:102480001F92CDB7DEB70F900F900F900F900F9067
:10249000DF91CF910895CF93DF9300D000D000D08B
:1024A000CDB7DEB726960FB6F894DEBF0FBECDBF10
:1024B000DF91CF9108951F93CF93DF93C091B40123
:1024C00016E08091B501C81799F0D0E01C9FF0018B
:1024D0001D9FF00D1124EA54FE4F4081518162810D
:1024E0007381848195810E944B122196C770E9CF38
:1024F000DF91CF911F9108954091E6015091E7013E
:102500006091E8017091E9018091EA019091EB01FD
:102510000C944B120F931F93CF93DF938091EB0199
:1025200082958F7009F05DC08091E801882309F4DD
:1025300058C08091B4011091B5016091E60170918D
:10254000E701C091E901D091EA0191E06F3F09F004
:1025500090E0292F06E0811709F443C0209721F06D
:102560007F3F21F030E003C031E001C0322F90E026
:1025700030FD34C0089FF001099FF00D1124DF01E8
:10258000AA54BE4F11963C911197371327C03C9126
:10259000361324C012963C91129731111FC0139626
:1025A0004D915C9114974C1B5D0B483C5105B0F468
:1025B0008091EB018F7080618093EB01E554FE4FB9
:1025C00080818F708061808386EE91E00E94C511CA
:1025D000DF91CF911F910F910C945B120196877040
:1025E000BACFDF91CF911F910F9108959F92AF9233
:1025F000BF92CF92DF92EF92FF920F931F93CF93F0
:10260000DF93CDB7DEB761970FB6F894DEBF0FBE8C
:10261000CDBF8C0185E0F801DE011D9601900D9281
:102620008A95E1F7F80140815181E2809091E601BD
:102630006091E7012091E9013091EA01211531050E
:1026400031F06F3F31F481E09F3F19F403C081E026
:1026500001C080E0F82FF1709F2E80FD46C1F80187
:10266000A380B48086EEC82E81E0D82EF090E801D9
:10267000F501E21BF30BFF2009F4DFC08091EB01B1
:10268000E83CF10508F09BC0282F207F09F052C0DC
:10269000561313C0491311C0FE2CE1100EC08F70E9
:1026A00080618093EB010E947C12C6010E94C511DB
:1026B0008091EB01F801858358C1AB2831F05F3F71
:1026C00031F481E04F3F19F403C081E001C080E0A4
:1026D00080FD03C081E08E2502C080E090E0F82FED
:1026E000F170FF2E80FF1CC08091B4012091B501D4
:1026F00036E0821709F417C190E0389FF001399F46
:10270000F00D1124EA54FE4F6181561306C060811A
:10271000461303C06281E61203C001968770E9CFB9
:10272000FE2CEE2009F421C18091EB0181608093A1
:10273000EB015AC0561306C0491304C0E11002C091
:10274000F8019FC04D875E878D859E850E94371258
:10275000882379F1EE2069F12091EB01822F829597
:102760008F7090E0029774F08091E6019091E701FC
:1027700098878F831986BB86AA862C87CE010796F9
:102780000E94C51186E0F801A6EEB1E001900D921D
:102790008A95E1F70E948A120E947C120DC056179A
:1027A00029F14D875E878D859E850E9437128111A4
:1027B0002CC0C8010E94C511FF24F394D6C0282F55
:1027C000207F69F77A2DB98AA88A6E2D89890E949F
:1027D0003C1286EE91E00E94C51186E0F60111924E
:1027E0008A95E9F70E947C12F12CBFC04913D9CF1A
:1027F000E110D7CFF8018583C8010E94C51186E09A
:10280000F60111928A95E9F7B0C0EE2091F220917D
:10281000EB01822F82958F7090E002970CF4B2CF7B
:102820008091E6019091E7019A8389831B82BD82A2
:10283000AC822E83CE010196A3CFE83CF10508F0CF
:1028400047C0FE2CEE2009F4B4CF561330C0491314
:102850002EC02091EB0120FD21C0822F82958F7028
:10286000482F50E041155105C9F0F80125834F303C
:10287000510541F08F5F982F9295907F822F8F7036
:10288000892B8583C8010E94C51186E0F801A6EE58
:10289000B1E001900D928A95E1F742C086E0F8011F
:1028A000A6EEB1E001900D928A95E1F75EC04D87EA
:1028B0005E878D859E850E943712811163CF80913E
:1028C000EB0181608093EB01C8010E94C5114DC0EE
:1028D0007A2DB98AA88A6E2D89890E943C1286E0D9
:1028E000F60111928A95E9F71BC0EE2009F461CF39
:1028F0004D875E878D859E850E943712F82E88232E
:1029000009F457CF86E0F801A6EEB1E001900D92F0
:102910008A95E1F786EE91E00E944A0E0E948A12A3
:102920000E947C1222C04D875E878D859E850E9405
:102930009C17292F22952F70223028F49F7039F090
:10294000811105C00BC0243028F49F7049F4805ECB
:10295000883020F0C8010E94C5119F2CF92C05C0B9
:10296000F8019581907F99F7F9CF8F2D61960FB679
:10297000F894DEBF0FBECDBFDF91CF911F910F91B5
:10298000FF90EF90DF90CF90BF90AF909F90089511
:102990001F93CF93DF93CDB7DEB72C970FB6F89484
:1029A000DEBF0FBECDBF4F83588769877A878B877D
:1029B0009C87CE0107960E94F6128823D1F09F8152
:1029C00088852A853B85232B31F08F3F31F481E0C8
:1029D0009F3F19F403C081E001C080E080FD47C043
:1029E0004F81588569857A858B859C850E944B121D
:1029F0003EC086E0FE013796DE01119601900D92F1
:102A00008A95E1F7FF81E8856A857B856115710507
:102A100031F0EF3F31F481E0FF3F19F403C081E072
:102A200001C080E080FD23C02091B50130E0C901E4
:102A30000196877099274091B40150E0841795075B
:102A4000F1F1F983EA837D836C8396E0929FD00154
:102A5000939FB00D1124AA54BE4FFE0131960190F0
:102A60000D929A95E1F78093B5010E945B1216E0F2
:102A70008091B4019091B501891771F1189FC0013F
:102A800011248A549E4F0E94F612882329F1E09166
:102A9000B4011E9FF0011124EA54FE4F4081518180
:102AA00062817381848195810E944B128091B4016F
:102AB00090E00196877099278093B401D9CF0E9446
:102AC0000F121092B5011092B401E6EEF1E086E02B
:102AD000DF011D928A95E9F72C960FB6F894DEBFB8
:102AE0000FBECDBFDF91CF911F910895EF92FF925E
:102AF0000F931F93CF93DF938C01892B09F46CC044
:102B0000F12CEE24E394E8012196F80184918437B6
:102B100040F4843008F051C0813081F0823019F1E6
:102B20005BC0853709F444C0A8F19CE7980F903743
:102B300008F052C08F770E94FA0E41C00E5F1F4FFF
:102B4000FE01849190E2980F983050F48770FE2D2A
:102B500001C0FF0F8A95EAF78F2F0E94FE1714C05D
:102B60000E94500E2DC00E5F1F4FFE01849190E217
:102B7000980F983060F48770FE2D01C0FF0F8A9582
:102B8000EAF78F2F0E9404180E94291819C00E948A
:102B9000FA0E16C00E5F1F4FFE01C491CC2381F0C8
:102BA0008FE99FE00197F1F700C00000C150F6CF18
:102BB0000E5F1F4FFE01F49003C00E94500E8E0165
:102BC0008F2D882309F49FCFEFE9FFE03197F1F7CC
:102BD00000C000008150F5CFDF91CF911F910F9180
:102BE000FF90EF900895089508950C94F4150C94B7
:102BF000F5150E94F7156093090270930A028093FD
:102C00000B0290930C020C94F5110C94F9150F9390
:102C10001F930091090210910A0220910B0230913A
:102C20000C02602B712B822B932B1F910F910C9414
:102C3000F9150F931F930091090210910A02209138
:102C40000B0230910C0260237123822393231F9186
:102C50000F910C94F9150F931F9300910902109195
:102C60000A0220910B0230910C0260277127822703
:102C700093271F910F910C94F9150C94F4150E9451
:102C80003D166093050270930602809307029093AD
:102C900008020C94F51160E070E0CB010C943F1633
:102CA0000F931F9341E050E060E070E08A019B01C8
:102CB00004C0000F111F221F331F8A95D2F7C901CC
:102CC000B8011F910F910C943F160F931F9341E091
:102CD00050E060E070E004C0440F551F661F771F8E
:102CE0008A95D2F78091050290910602A091070281
:102CF000B09108028A019B01082B192B2A2B3B2B30
:102D0000C901B8011F910F910C943F160F931F93A7
:102D100041E050E060E070E004C0440F551F661FC2
:102D2000771F8A95D2F74095509560957095809160
:102D3000050290910602A0910702B09108028A0153
:102D40009B01082319232A233B23C901B8011F91A2
:102D50000F910C943F160F931F9341E050E060E0F9
:102D600070E004C0440F551F661F771F8A95D2F785
:102D70008091050290910602A0910702B09108028D
:102D80008A019B01082719272A273B27C901B80177
:102D90001F910F910C943F160F931F930091050202
:102DA000109106022091070230910802602B712BCE
:102DB000822B932B1F910F910C943F160F931F930F
:102DC000009105021091060220910702309108023D
:102DD00060237123822393231F910F910C943F163C
:102DE0000F931F9300910502109106022091070294
:102DF0003091080260277127822793271F910F9136
:102E00000C943F1608952AE0929F800D1124E82F1C
:102E1000E695E695E695877051E001C0550F8A95D5
:102E2000EAF785E0E89FF0011124E451FE4F20E02D
:102E300030E070E04081CB01022E02C0969587956C
:102E40000A94E2F7817081958427852384278193F2
:102E50002F5F3F4F2530310569F708952AE0929F93
:102E6000800D1124682F669566956695982F97704A
:102E700085E0689FB001112440E050E080E0FB0154
:102E8000E40FF51FE451FE4F208130E0092E02C00F
:102E9000369527950A94E2F721703327042E01C056
:102EA000220F0A94EAF7822B4F5F5F4F453051059E
:102EB00031F70895BF92CF92DF92EF92FF920F9376
:102EC0001F93CF93DF938C01C0900502D090060230
:102ED000E0900702F09008028091090290910A02A6
:102EE000A0910B02B0910C02C82AD92AEA2AFB2A27
:102EF000CFE1D0E0D701C6010C2E04C0B695A7954E
:102F0000979587950A94D2F780FD04C0219790F792
:102F1000B12C07C0BC2EB8018C2F0E94D904019798
:102F2000A9F38B2DDF91CF911F910F91FF90EF901F
:102F3000DF90CF90BF900895CF93DF93EC010E9474
:102F40005A17BE010E94D904DF91CF9108951F93B3
:102F5000CF93DF93EB019091B301992321F0CB0143
:102F60000E949C1713C0882349F0CB010E945A1776
:102F7000182F682FCE010E94031704C0CB010E94B6
:102F80002E17182FBE01812F0E94D904DF91CF91F7
:102F90001F91089580910D028595859585950895D9
:102FA00080910D028770089590910D02977081E0D5
:102FB00009F480E0089580913102089590913102E2
:102FC000892B809331020895809590913102892355
:102FD0008093310208951092310208959091300249
:102FE000892B809330020895809590913002892337
:102FF00080933002089510923002089590912F022C
:10300000892B80932F020895809590912F02892318
:1030100080932F02089510922F02089580910E023E
:10302000089508950C9411180C94121890910E02A2
:10303000981721F080930E020C9414180895809133
:103040000E02882329F010920E0280E00C941418CE
:103050000895E0910801F091090180913102808387
:10306000E0910801F0910901908180913002892B53
:103070008083E0910801F0910901908180912F02F5
:10308000892B808380910E02882381F0E0910801D2
:10309000F09109019081892B8083809108019091A2
:1030A00009010E94461981110E941F188091080190
:1030B000909109010C94CB0C0C94111898E0899F05
:1030C00090011124262B20930D020E9465168091F9
:1030D0000D028595859585950C945C1810920D02CE
:1030E00080E00C945C1820910D02809582238093DF
:1030F0000D02982F977079F430E0482F082E000CBD
:10310000550B2417350739F08595859585950E94CF
:1031100086160C946E18089580E0089580E090E083
:103120000E949B2321E08B3E9E4F09F020E0822FDE
:10313000089582E090E00C949323682F82E090E061
:103140000C94A12383E090E00C949323682F83E0F8
:1031500090E00C94A123CF9384E090E00E9493230D
:10316000C82F81E290E00E9493232C2F30E0A90128
:10317000582BCA01CF910895CF93C92F682F84E0AF
:1031800090E00E94A1236C2F81E290E0CF910C94FB
:10319000A123AB01BC018FE090E00C94B323AB0101
:1031A000BC0183E190E00C94B32360E070E0CB01BC
:1031B0000C94CF1860E070E0CB010E94C9180C9409
:1031C000D5186BEE7EEF80E090E00E94BF2360E0B8
:1031D00082E090E00E94A12360E083E090E00E9402
:1031E000A1231092090210920A0210920B0210926F
:1031F0000C0260E084E090E00E94A12360E081E2A4
:1032000090E00E94A12360E085E090E00E94A1236D
:1032100060E086E090E00E94A1236FEF87E090E0FD
:103220000E94A12340E050E0BA0188E090E00E94B3
:10323000B32360E08DE090E00E94A12340E050E0E5
:10324000BA0188E190E00E94B32360E087E190E05A
:103250000E94A12340E050E0BA018CE190E00E947E
:10326000B32360E080E290E00E94A12340E050E0C0
:10327000BA0188E190E00E94B3230C94DA180C9410
:10328000E118682F8EE090E00C94A123FC013296A7
:1032900080911401882331F080916A0287FF02C077
:1032A0009EE101C096E080E0915028F02191222318
:1032B000D9F38F5FF9CF0895662351F1209114015E
:1032C0002223E9F020916A0227FF19C0462F469574
:1032D000469546954E31E0F4677021E030E002C03B
:1032E000220F331F6A95E2F7FC01E40FF11D828182
:1032F00090E02823392381E0232B69F409C0FC01E5
:10330000329608962191621729F0E817F907D1F74C
:1033100080E0089581E008959C01FC0132969FEFC2
:1033200080E04191461789F09F3F19F4411101C097
:10333000982F8F5F8630A9F79F3F39F0F901E90F89
:10334000F11D97FDFA956283089508959C012A5F07
:103350003F4FFC014281461301C012820196821741
:103360009307B9F70895262F2695269526952E3191
:1033700068F4FC01E20FF11D677021E030E001C04C
:10338000220F6A95EAF78281282B22830895262F3F
:103390002695269526952E3170F4FC01E20FF11D3D
:1033A000677021E030E001C0220F6A95EAF72095AE
:1033B000828128232283089520911401222329F059
:1033C00020916A0227FD0C94B3190C948C1920915A
:1033D0001401222329F020916A0227FD0C94C719B9
:1033E0000C94A61920911401FC013296222331F08D
:1033F00080916A0287FF02C08EE101C086E0DF0192
:103400001D928A95E9F7089508950C94041A0C9476
:10341000041ACF930E94071A0E9438070E94051AC7
:10342000C0E08C2F0E94C806892B29F4CF5FC430DE
:10343000C1F780E001C081E0CF9108950C94041A97
:103440000C941E1A80917002843049F10E94201A57
:1034500080E00E94B1041092330220E488E190E001
:103460000FB6F894A895809360000FBE209360007B
:1034700083B7817F846083BF83B7816083BF789483
:10348000889583B78E7F83BF0FB6F894A8958091F7
:103490006000886180936000109260000FBE089504
:1034A0000C94041A0E940F120E94BF0C0E94B104D7
:1034B0000C94501A1F920F920FB60F9211248F93F3
:1034C0009F93AF93BF9380913302811113C080917A
:1034D000660290916702A0916802B09169024196DC
:1034E000A11DB11D8093660290936702A0936802AC
:1034F000B0936902BF91AF919F918F910F900FBED2
:103500000F901F90189582E084BD93E095BD9AEFCF
:1035100097BD80936E0008952FB7F894809166024E
:1035200090916702A0916802B09169022FBF08953F
:103530002FB7F894609166027091670280916802DB
:10354000909169022FBF08959C014FB7F894809124
:10355000660290916702A0916802B09169024FBF24
:10356000821B930B089578941F920F920FB60F92BF
:1035700011248F939F93AF93BF9380916602909194
:103580006702A0916802B09169020196A11DB11D68
:103590008093660290936702A0936802B0936902D9
:1035A000BF91AF919F918F910F900FBE0F901F9081
:1035B000189581E08093E00080E28093D80010921B
:1035C000C9008FE19EE40197F1F700C0000087E099
:1035D00090EBDC018093790290937A02A0937B02B6
:1035E000B0937C029CE088E10FB6F894A895809394
:1035F00060000FBE90936000FFCF9093870180938F
:1036000086010895AF92BF92CF92DF92EF92FF9220
:103610000F931F93CF93C0E0CC24C394D12CE82EFA
:10362000F12C8C2F0E94C8065C0100E010E0C6015E
:10363000002E02C0880F991F0A94E2F78A219B216D
:10364000892B31F40F5F1F4F0A30110581F70AC033
:10365000602F7C2F80E00E94BE04E816F90691F7E7
:1036600081E004C0CF5FC430E1F680E0CF911F91CC
:103670000F91FF90EF90DF90CF90BF90AF900895A3
:10368000CF93C82F8CE20E94021B882321F08C2F3D
:10369000CF910C94021B80E0CF910895CF930E94AC
:1036A0008E18811102C00E943F19C5E6C15049F031
:1036B0000E9438078FE39CE90197F1F700C00000F2
:1036C000F5CF89E20E94401B81112AC18AE20E9443
:1036D000401B81110E943F1985E00E94401B81110F
:1036E0000E94D91A0E9499188093320287E00E94A2
:1036F000401B8823A9F18BE10E94401B882351F0D5
:103700008091320281FB222720F991E0922790FBE1
:1037100081F90EC08EE00E94401B882361F08091E9
:10372000320282FB222720F991E0922790FB82F956
:103730008093320215C080E10E94401B90913202BA
:10374000882341F093FB222720F981E0822780FB28
:1037500093F904C0892F809580FB90F990933202F1
:10376000809132020E949D180E94AB1890936B02C8
:1037700080936A0280EE0E94401B882341F0809172
:103780006A02982F909590FB80F980936A0289E3F2
:103790000E94401B882359F080916A0281FB2227F6
:1037A00020F991E0922790FB81F980936A0282EEE2
:1037B0000E94401B882359F080916A0282FB2227D5
:1037C00020F991E0922790FB82F980936A0286EEBD
:1037D0000E94401B882359F080916A0283FB2227B4
:1037E00020F991E0922790FB83F980936A0283EE9F
:1037F0000E94401B882359F080916A0284FB222793
:1038000020F991E0922790FB84F980936A0285E386
:103810000E94401B882359F080916A0285FB222771
:1038200020F991E0922790FB85F980936A0281E369
:103830000E94401B882359F080916A0286FB222750
:1038400020F991E0922790FB86F980936A0281E14A
:103850000E94401B882359F080916A0287FB22272F
:1038600020F991E0922790FB87F980936A0280917A
:103870006A0290916B020E94BC1887E20E94401B72
:10388000C82F8EE10E94401B8111C2608FE10E940F
:10389000401B8111C46080E20E94401B8111C860FE
:1038A00081E20E94401B8111C06182E20E94401BA4
:1038B0008111C06283E20E94401B8111C06484E2D6
:1038C0000E94401B882311F0C06802C0CC2329F05D
:1038D0008C2F0E94A6186C2F03C00E94A218682F7C
:1038E00070E080E090E00E94051660910502709102
:1038F000060280910702909108020E943D168FE017
:103900000E94401B882319F081E00E94411985E143
:103910000E94401B882321F080E0CF910C94411934
:10392000CF910895809154020895CF93DF9300D0F2
:103930001F92CDB7DEB790917002943019F589834C
:103940007B836A8382E08093E9008FEF9091E800A7
:10395000815095FD06C095ED9A95F1F70000811113
:10396000F5CF8091E80085FF0DC040E050E063E0B6
:1039700070E0CE0101960E94C71E8091E8008E770C
:103980008093E8000F900F900F90DF91CF910895F2
:10399000BC0184E00C94951CBC0183E00C94951C44
:1039A00022E02093E9002FEF3091E800215035FD0F
:1039B00006C035ED3A95F1F700002111F5CF2091C1
:1039C000E80025FF0BC040E050E066E070E00E9498
:1039D000C71E8091E8008E778093E8000895CF930A
:1039E000DF9320911401222339F020916A0227FFEE
:1039F00003C060E222E002C068E021E02093E90019
:103A00002FEF3091E800215035FD06C035ED3A9595
:103A1000F1F700002111F5CF2091E80025FF1DC02E
:103A2000EC0180911401811105C040E050E068E094
:103A300070E003C070E040E050E0CE010E94C71E7D
:103A40008091E8008E778093E80080E2FE01A4E395
:103A5000B2E001900D928A95E1F7DF91CF91089540
:103A600080916F02811109C00E9458200E94B520E8
:103A70008091E20084608093E200089510926F02CA
:103A8000089508950895089542E061EC81E00E9450
:103A9000D11F42E261EC82E00C94D11F809172024E
:103AA000833009F460C030F4813071F0823009F461
:103AB00099C008958A3009F485C08B3009F46BC031
:103AC000893009F0A7C020C080917102813A09F0C5
:103AD000A1C08091E800877F8093E8008091750203
:103AE00090917602892B21F460E284E392E003C096
:103AF00060E080E090E070E00E94121F8091E8009A
:103B00008B778093E800089580917102813209F0EB
:103B100081C08091750290917602029708F07AC078
:103B20008091E800877F8093E8008091E80082FD23
:103B300005C0809170028111F8CF6CC02091F30014
:103B40008091F20090E0922B029729F48091F1008D
:103B50008B7F813021F48091F10080935402809119
:103B6000E8008B7753C080917102813A09F052C00E
:103B70008091750290917602892B09F04BC080915B
:103B8000E800877F8093E8008091E80080FFFCCF09
:103B90008091140136C0809171028132D9F58091F3
:103BA000750290917602892BA9F58091E800877FB4
:103BB0008093E8000E940620809173028093140194
:103BC0000C940F1280917102813221F58091E800EE
:103BD000877F8093E8000E94062080917402809382
:103BE0005502089580917102813AA1F48091E80014
:103BF000877F8093E8008091E80080FFFCCF809170
:103C000055028093F1008091E8008E778093E80060
:103C10000C940620089584B7877F84BF0FB6F8946C
:103C2000A895809160008861809360001092600088
:103C30000FBE90E080E80FB6F894809361009093F7
:103C400061000FBE0E944A0D0E9458200E94B520BC
:103C50008091E20084608093E20078940E944A237D
:103C60000E94540D8AE091E00E94BA0C809170028B
:103C70008530A9F480917002853079F40E94221A6F
:103C800080916E028823B1F30E94091A882391F370
:103C90000E94B11E0E940F12EDCF0E94521A0E9484
:103CA0005C0D0E943E0D0E943D0DE0CF0C94581E0D
:103CB000292F332723303105C9F060F42130310535
:103CC00081F02230310509F044C08BE390E02CE212
:103CD00036E043C021323105E1F02232310549F1AD
:103CE00038C082E190E027E636E037C0992781307E
:103CF000910549F028F0029761F5ECEFF5E005C079
:103D0000E8E2F6E002C0E0E1F6E0849190E09F0195
:103D100024C06115710541F061307105D1F489E06D
:103D200090E027E536E019C089E090E02EE336E028
:103D300014C06115710541F06130710551F486EBD5
:103D400090E029E736E009C080E490E02FE237E018
:103D500004C080E090E020E030E0FA01318320836D
:103D6000089580E189BD82E189BD09B400FEFDCFDF
:103D70008091D8008F7D8093D8008091E000826090
:103D80008093E0008091E00081FDFCCF0895CF9208
:103D9000DF92EF92FF920F931F93CF93DF93EC018B
:103DA0008B017A010E942520811133C0E114F104B6
:103DB00039F0F70180819181081B190BC80FD91FB9
:103DC000C12CD12C0115110519F18091E80085FD58
:103DD00016C08091E8008E778093E800E114F1042A
:103DE00049F0F70180819181C80ED91ED182C0822D
:103DF00085E00FC00E942520882321F30AC0899105
:103E00008093F10001501109FFEFCF1ADF0ADACFDA
:103E100080E0DF91CF911F910F91FF90EF90DF90A5
:103E2000CF900895209177023091780226173707B6
:103E300048F06115710539F42091E8002E77209340
:103E4000E80001C0B901FC0120E06115710579F1BC
:103E5000809170028823F1F18530F1F18091E800C2
:103E600083FD3CC08091E80082FD2EC08091E80077
:103E700080FFEBCF2091F3008091F20090E0922B35
:103E80006115710551F08830910538F42191209326
:103E9000F100615071090196F3CF21E0089709F014
:103EA00020E08091E8008E778093E800CECF21114A
:103EB000CFCF0AC080917002882361F0853061F015
:103EC0008091E80083FD0AC08091E80082FFF2CF74
:103ED00080E0089582E0089583E0089581E00895E8
:103EE00020917702309178022617370748F0611544
:103EF000710539F42091E8002E772093E80001C085
:103F0000B901FC0120E06115710591F18091700209
:103F1000882309F440C0853009F43FC08091E8004F
:103F200083FD3DC08091E80082FD2FC08091E800B4
:103F300080FFE9CF2091F3008091F20090E0922B76
:103F40006115710559F08830910540F42491209352
:103F5000F1003196615071090196F2CF21E0089786
:103F600009F020E08091E8008E778093E800CBCFC5
:103F70002111CCCF0AC080917002882361F0853076
:103F800061F08091E80083FD0AC08091E80082FF23
:103F9000F2CF80E0089582E0089583E0089581E003
:103FA0000895982F973068F59093E900981739F0A5
:103FB0007091EC002091ED005091F00003C0242F8F
:103FC000762F50E021FD02C09F5FECCF3091EB00D7
:103FD0003E7F3093EB003091ED003D7F3093ED005C
:103FE0003091EB0031603093EB007093EC00209344
:103FF000ED005093F0002091EE0027FDE5CF80E02A
:1040000008958F708093E90081E008958091710296
:1040100087FF11C08091E80082FD05C08091700289
:104020008111F8CF11C08091E8008B770BC080918F
:104030007002882349F08091E80080FFF8CF8091DA
:10404000E8008E778093E80008952091E400309195
:10405000E50095E64091EC00842F817040FF23C07D
:104060008091E80080FD1DC080917002882399F046
:10407000853099F08091EB0085FD11C04091E400FE
:104080005091E5002417350729F3915011F09A015A
:10409000E1CF84E0089582E0089583E0089581E00F
:1040A000089580E008954091E80042FFDDCF089533
:1040B0000E94C6200E94CE20E0EEF0E08081816068
:1040C0008083E8EDF0E080818F77808319BCA7EDD5
:1040D000B0E08C918E7F8C9380818F7E8083109254
:1040E0006F0208950F931F93CF93DF930E94C62012
:1040F0000E94CE20C8EDD0E088818F7788838881A8
:104100008068888388818F7D888319BC10927002B3
:1041100010926C0210926E0210926D0200EE10E08E
:10412000F80180818B7F808388818160888342E071
:1041300060E080E00E94D11FE1EEF0E080818E7FA0
:104140008083E2EEF0E080818160808380818860FE
:104150008083F80180818E7F80838881806188835D
:10416000DF91CF911F910F910895E8EDF0E08081EC
:104170008F7E8083E7EDF0E080818160808384E042
:1041800082BF81E080936F020C947220E8EDF0E032
:1041900080818E7F80831092E20008951092DA0071
:1041A0001092E10008951F920F920FB60F92112402
:1041B0002F933F934F935F936F937F938F939F932F
:1041C000AF93BF93EF93FF938091E10082FF0BC009
:1041D0008091E20082FF07C08091E1008B7F809395
:1041E000E1000E9449238091DA0080FF1FC0809186
:1041F000D80080FF1BC08091DA008E7F8093DA00A8
:104200008091D90080FF0DC080E189BD82E189BD28
:1042100009B400FEFDCF81E0809370020E94301D42
:1042200005C019BC109270020E943E1D8091E100F1
:1042300080FF19C08091E20080FF15C08091E200EC
:104240008E7F8093E2008091E20080618093E200A3
:104250008091D80080628093D80019BC85E080935B
:1042600070020E94421D8091E10084FF30C0809165
:10427000E20084FF2CC080E189BD82E189BD09B4E0
:1042800000FEFDCF8091D8008F7D8093D800809173
:10429000E1008F7E8093E1008091E2008F7E809329
:1042A000E2008091E20081608093E20080916C02E4
:1042B000882311F084E007C08091E30087FD02C0ED
:1042C00081E001C083E0809370020E94431D8091D1
:1042D000E10083FF29C08091E20083FF25C0809127
:1042E000E100877F8093E10082E08093700210926A
:1042F0006C028091E1008E7F8093E1008091E2006A
:104300008E7F8093E2008091E20080618093E200E2
:1043100042E060E080E00E94D11F8091F000886060
:104320008093F0000E94411DFF91EF91BF91AF91EA
:104330009F918F917F916F915F914F913F912F91BD
:104340000F900FBE0F901F9018951F920F920FB6EF
:104350000F9211242F933F934F935F936F937F930B
:104360008F939F93AF93BF93CF93DF93EF93FF937D
:10437000C091E900CF708091EC00D82FD17080FD02
:10438000D0E81092E9008091F000877F8093F000E0
:1043900078940E94E9211092E9008091F0008860F1
:1043A0008093F000CD2BCF70C093E900FF91EF9187
:1043B000DF91CF91BF91AF919F918F917F916F913D
:1043C0005F914F913F912F910F900FBE0F901F90D3
:1043D00018951F93CF93DF93CDB7DEB7AA970FB68B
:1043E000F894DEBF0FBECDBFE1E7F2E08091F100AF
:1043F000819322E0E937F207C9F70E944E1D8091B0
:10440000E80083FF2EC18091710290917202492FC2
:1044100050E04A30510508F024C1FA01EC58FF4F32
:104420000C947923803821F0823809F01AC108C031
:1044300080916D0290916E02992389F082600FC085
:10444000809175028F70873008F00BC18093E9006E
:104450008091EB0085FB882780F91092E90090910C
:10446000E800977F9093E8008093F1001092F100AC
:10447000D1C0282F2D7F09F0F4C0882319F0823095
:1044800061F0EFC080917302813009F0EAC093308F
:1044900009F080E080936E022EC08091730281113A
:1044A0002AC0809175028F702FEF280F263008F0F8
:1044B000D8C08093E9002091EB0020FF1CC093300E
:1044C00021F48091EB00806214C09091EB00906128
:1044D0009093EB0021E030E0A90102C0440F551F8A
:1044E0008A95E2F74093EA001092EA008091EB008F
:1044F00088608093EB001092E9008091E800877F4C
:104500008093E8000E940620ACC08111AAC01091DF
:1045100073021F778091E3008078812B8093E30002
:104520008091E800877F8093E8000E9406208091B8
:10453000E80080FFFCCF8091E30080688093E30077
:10454000111102C082E001C083E08093700289C033
:104550008058823008F085C0809173029091740277
:104560008C3D53E0950779F583E08A838AE289835D
:104570004FB7F894DE01139620E03EE051E2E32FBE
:10458000F0E050935700E49120FF03C0E295EF70F4
:104590003F5FEF708E2F90E0EA3010F0C79601C0B9
:1045A000C0968D939D932F5F243149F74FBF809123
:1045B000E800877F8093E8006AE270E0CE01019610
:1045C0000E94121F16C06091750270917602AE01B2
:1045D0004F5F5F4F0E94561EBC01892B09F441C0FA
:1045E0009091E800977F9093E80089819A810E94DA
:1045F000701F8091E8008B778093E80032C080388C
:1046000081F58091E800877F8093E80080916C02BB
:104610008093F1008091E8008E7772CF811121C0E4
:10462000809173029091740299270297D4F480913B
:10463000E800877F8093E8008091730280936C028A
:104640000E94062080916C02811106C08091E300D7
:1046500087FD02C081E001C084E0809370020E9467
:10466000441D8091E80083FF0AC08091E800877FA5
:104670008093E8008091EB0080628093EB00AA9623
:104680000FB6F894DEBF0FBECDBFDF91CF911F9163
:1046900008950895CF93809170028823A1F0C0916E
:1046A000E900CF709091EC00892F817090FD80E837
:1046B000C82B1092E9008091E80083FD0E94E92157
:1046C000CF70C093E900CF91089597FB072E16F4A1
:1046D000009407D077FD09D00E947F2307FC05D006
:1046E0003EF4909581959F4F0895709561957F4F09
:1046F0000895EE0FFF1F0590F491E02D0994AA1B79
:10470000BB1B51E107C0AA1FBB1FA617B70710F0BC
:10471000A61BB70B881F991F5A95A9F780959095EE
:10472000BC01CD010895F999FECF92BD81BDF89AE3
:10473000992780B50895A8E1B0E042E050E00C94DC
:10474000C723262FF999FECF92BD81BDF89A019714
:1047500000B4021639F01FBA20BD0FB6F894FA9AC9
:10476000F99A0FBE08950396272F0E94A2230E9454
:10477000A123252F0E94A223242F0C94A22301966B
:10478000272F0E94A2230C94A123DC01CB01FC0162
:10479000F999FECF06C0F2BDE1BDF89A319600B49A
:0E47A0000D9241505040B8F70895F894FFCFA5
:1047AE002808641E140A321E0F02921CEF1CD01C25
:1047BE00CC1CC81C01E200E900EA00B500B600B747
:1047CE0000CD008301CC008A0192019401210223C5
:1047DE000224022502260227022A02B300B4006F29
:1047EE00007000818283F6F7313332363534C69746
:1047FE0066949091E200E900EA00B500B600B700B9
:10480E00CD008301CC008A01920194012102230282
:10481E0024022502260227022A02B300B4006F00EA
:06482E007000818283008E
:00000001FF
