:100000000C947E020C94C5020C94C5020C94C5029B
:100010000C94C5020C94C5020C94C5020C94C50244
:100020000C94C5020C94C5020C946B200C943D21D9
:100030000C946D170C94C5020C94C5020C94C50267
:100040000C94C5020C94C5020C94C5020C94C50214
:100050000C94C5020C94BA170C94C5020C94C502FA
:100060000C94C5020C94C5020C94C5020C94C502F4
:100070000C94C5020C94C5020C94C5020C94C502E4
:100080000C94C5020C94C5020C94C5020C94C502D4
:100090000C94C5020C94C5020C94C5020C94C502C4
:1000A0000C94C5020C94C5020C94C502EC0CEC0C2B
:1000B0001E0D1E0D650D830DA40EA40E8E0D230EB8
:1000C000340E340E940EA40EA40E9D0E520F520F39
:1000D000640F640F5B0F640F640F640F520F520FB5
:1000E000600F640F640F600FAA21D121C922D121B2
:1000F000C9221D224022C9229722A62214001A00DA
:100100000900130005000D000F0018001C0034004A
:1001100004681564166117620A0010001162086114
:100120000C6412681D001B740600070019000E0005
:100130000B003600377438000000000029422C43C1
:100140002B4428452A464C470000000001000100CE
:100150000100010001000100010001000100010097
:100160000100010001000100010001000100010087
:100170000100010001000100010001000100010077
:100180000100010001000100000000000100010069
:100190000100F400F600F50000000000005C000023
:1001A000000000000000BF5CC05CC25CC45CC65CB8
:1001B000E300E200E000E10000000000AC00AA0063
:1001C000A900AB000000E6000000000000000000F5
:1001D000000000000000000000000000000000001F
:1001E0000000AD00AE00A80000000000005C0000B0
:1001F0000000000000007900490249014C027A0029
:10020000E300E200E000E10000003900500051008E
:1002100052004F000000E60000000000000049000E
:100220004A004E004B004D0000000000000000009E
:10023000000028002A004C0000000000005C0000C4
:1002400000000000000000000000000000000000AE
:10025000E300E200E000E10000000000F200F10035
:10026000F000F3000000E6000000000000000000C5
:10027000FB00FA00F900FC00000000000000000094
:100280000000F400F600F500000000002F02240238
:100290002502260230020000000000000000005C81
:1002A00033022102220223022E020000E100E000BC
:1002B000E200E30035021E021F02200231020000AC
:1002C00000000000E60000000000000026022702F7
:1002D0002D02000000000000000000002F0024009C
:1002E0002500260030000000000000000000005C37
:1002F00033002100220023002E000000E100E00076
:10030000E200E30035001E001F0020003100000065
:1003100000000000E6000000000000003700270099
:100320002D0000000000000000000000450040001B
:100330004100420046000000000000000000005C98
:1003400044003D003E003F0047000000E100E000A7
:10035000E200E30043003A003B003C00480000009C
:1003600000000000E60000000000000065002C0016
:100370002B0000000000000000000000040330001B
:10038000000012036B006500790062006F006100DD
:10039000720064000000160371006D006B006200C3
:1003A000750069006C0064006500720000000403C1
:1003B000090409023B00020100A0FA09040000013F
:1003C00003010100092111010001224000070581FC
:1003D0000308000A090401000103000000092111BB
:1003E00001000122BC000705820320000A1201104F
:1003F0000100000008EDFE6060010001020301053C
:10040000010902A10185020901A1000509190129BB
:10041000051500250195057501810295017503817A
:10042000010501093009311581257F950275088183
:100430000609381581257F950175088106050C0A86
:1004400038021581257F950175088106C0C0050118
:100450000980A101850319012AB700150126B700FB
:10046000950175108100C0050C0901A101850419D1
:10047000012AA002150126A002950175108100C075
:1004800005010906A1018505050719E029E7150001
:1004900025019508750181020507190029EF15004E
:1004A000250195F0750181020508190129059505B9
:1004B00075019102950175039101C005010906A11D
:1004C00001050719E029E715002501950875018147
:1004D000029501750881010507190029FF150026FD
:1004E000FF00950675088100050819012905950585
:1004F00075019102950175039101C00011241FBE81
:10050000CFEFDAE0DEBFCDBF04B603FE27C0809197
:10051000750290917602A0917702B09178028730AF
:10052000904BA740B04BD1F4109275021092760216
:10053000109277021092780214BE84B7877F84BF2E
:100540000FB6F894A8958091600088618093600050
:10055000109260000FBEE0E0F8E3099511E0A0E022
:10056000B1E0EEEDF6E402C005900D92A638B107B9
:10057000D9F722E0A6E8B1E001C01D92A537B20785
:10058000E1F70E94A91D0C946D230C9400009C01BE
:100590003A9521153F4138F5DC01AA27B270AC012C
:1005A000442754709C012227387094FF0FC090FF9D
:1005B00002C080E101C080E0AB2B09F08062452BD6
:1005C00009F08064232B69F080680BC0892F81704B
:1005D000AB2B09F08260452B09F08460232B09F0D6
:1005E0008860FB0109940895CF93DF93EC01805E4E
:1005F0009109089710F0209719F468EA7CE002C08E
:1006000068E17FE0CE010E94C7028C2FDF91CF917D
:100610000C94830BCF93DF93EC010E942D0CCE0141
:10062000805E9109089710F0209719F46FEA7CE03A
:1006300002C06FE17FE0CE01DF91CF910C94C70241
:10064000CF93DF93EC010E94F402CE01DF91CF91B2
:100650000C940A0381E0089581E008950C942C0322
:1006600008950C9430031F93CF93DF9300D000D0F4
:100670001F92CDB7DEB749835A836B833091A001B7
:1006800089819A81311114C0662359F0222349F0DF
:100690000E947414182F682F89819A810E941D145A
:1006A00003C00E944814182F69817A81812F04C0E9
:1006B0000E94741469817A810F900F900F900F90AF
:1006C0000F90DF91CF911F910C94EB03FC01262F2B
:1006D000408151816281738184810C943303CF9373
:1006E000DF93EC0160E00E946603BE01DF91CF91D1
:1006F0000C9431030E94A615811102C00E9450166D
:100700000C940A060C94060608950C94840381E068
:1007100008950C948703CF93C82F0E9485038C2FD4
:100720000E948903CF91089508950E94400F0E946E
:1007300094032FEF84E39CE0215080409040E1F748
:1007400000C000000C94E0170F931F93CF93DF932A
:10075000EC0161E00E9466038C01BE010E942E0341
:10076000882379F1BE01C8010E94C609882349F196
:10077000BE01C8010E94D007882319F1BE01C8013B
:100780000E9422088823E9F0BE01C8010E944D0999
:100790008823B9F08A81882369F001158CE5180750
:1007A00031F00B3D1C4531F40E9450160AC00E94E6
:1007B000950307C0CE01DF91CF911F910F910C944B
:1007C0002A0380E0DF91CF911F910F91089580E07F
:1007D00090E00895089528E2829FC0011124FC0151
:1007E0002AE0729FE00DF11D1124E60FF11DEE0FBE
:1007F000FF1FE450FF4F859194910895880F991F32
:10080000FC01E458FC4F859194910895CF93DF93B8
:100810000E94EB030E941E05EC018115904508F033
:1008200041C0C11580E4D80708F0D1C0C83ED10549
:1008300010F5C03ED10508F0FDC0C83AD10578F4E6
:10084000C53AD10508F0A2C0C130D10509F4F2C003
:1008500008F4EEC0C430D10508F0ECC0E9C0CF3BCD
:10086000D10508F49BC0C03CD10508F4E1C0CE011D
:10087000805C91099EC0C11590E2D90758F4C1155A
:1008800021E0D20708F0D6C0C03FD10508F4D0C09F
:10089000D065D0C0C11580E3D80708F08EC0CE0166
:1008A0009F7087C0C11595E5D90708F043C0C115F1
:1008B00024E5D20708F0A2C0C11582E5D80708F5E3
:1008C000C11591E5D90708F085C0CE0174E0969571
:1008D00087957A95E1F783709C2F937021E030E043
:1008E00002C0220F331F9A95E2F73C68382BCF7075
:1008F000C695C69580E2C89FE0011124C22BD32B78
:1009000099C09E01237033278C2F86958695C1153B
:10091000D34508F064C0C1E0D0E002C0CC0FDD1FB9
:100920002A95E2F720E2829FC0011124C82BD92B1F
:10093000DC6880C0C11529E5D207A0F4C11588E59F
:10094000D80708F060C0C11596E5D90708F070C057
:100950008C2F0E94B2058F71C82FD0E0DC2FCC27DE
:10096000D06268C0C1152AE5D20708F451C0CE0193
:1009700090568115904208F05BC08D2F8F710E94B8
:10098000B205DD27D0628F71D82B54C0C55AD0E094
:10099000CC5BDE4FC881D0E0D0644CC0C85AD0E0F8
:1009A000CC0FDD1FCA5EDE4F0990D881C02DD46404
:1009B00041C00E94FE03EC013DC0CE019927D3FF48
:1009C00003C0EC01D86C36C0EC01D06C33C0DF70D2
:1009D000D06A30C0DC2FCC27C16FD06A2BC0C1E0F9
:1009E000D0E002C0CC0FDD1F2A95E2F720E2829F03
:1009F000C0011124C82BD92BDA681CC0DC2FCC27EE
:100A0000C46FD06A17C0DC2FCC27C06FD06A12C069
:100A10008C2F8F700E94B20594E0D695C7959A9559
:100A2000E1F7CF70D0E0DC2FCC27D069C82B02C013
:100A3000C0E0D0E0CE01DF91CF91089582389105DA
:100A400069F1B0F48133910509F46DC048F489323D
:100A5000910509F463C08A32910509F469C00895CB
:100A60008533910509F455C089339105B9F008958E
:100A7000833E910569F138F4803E9105B1F0823EE4
:100A8000910509F10895863E9105A9F1873E9105EA
:100A9000B9F1843E910509F064C023C0209166023B
:100AA00020FD4FC021FD4DC008958091660280FD5C
:100AB00044C08091670280FF44C08091660284FD3B
:100AC00042C083EE4DC08091660282FF38C0F5CFF0
:100AD0008091660282FD33C08091670280FD31C043
:100AE000ECCF8091670281FF32C08091660284FD65
:100AF0002AC087EE35C08091660283FF26C0F5CFFD
:100B00008091660283FD21C08091670281FD1FC034
:100B1000ECCF8091660285FD1CC01DC080916602ED
:100B200085FD19C016C08091660286FD16C017C0EB
:100B30008091660286FD13C010C089E311C082EE69
:100B40000FC080EE0DC080E00BC086EE09C084EEC1
:100B500007C089E205C085E303C08AE201C081E3E2
:100B600090E008959091660292FF0DC0282F2871A1
:100B7000283019F4877F846006C0282F2471243020
:100B800011F48B7F886093FF0DC0282F28712831C6
:100B900019F4877E846106C0282F2471243111F452
:100BA0008B7E88612091670220FF0DC0382F38713D
:100BB000383019F4877F816006C0382F31713130A9
:100BC00011F48E7F886021FF0DC0282F28712831F5
:100BD00019F4877E816106C0282F2171213111F41B
:100BE0008E7E886194FD877E0895E82FF0E0EE0FF9
:100BF000FF1FE65AFD4F808191810895089580EA94
:100C00008A95F1F7089508950C9403060C94040650
:100C10000C9403060C940806CF93DF93A1E5B1E092
:100C200045E551E061E070E08D91E82FE295EF70CD
:100C3000F0E021A18F70EB0102C0CC0FDD1F8A957F
:100C4000E2F7CE019C2F9095922391A392A1892B3C
:100C500082A34A175B0741F7A7E4B1E041E050E007
:100C60008D91E82FE295EF70F0E021A18F70BA012D
:100C700002C0660F771F8A95E2F7CB01962F9095F9
:100C8000922391A392A1892B82A371E0A135B7078A
:100C900039F7109253021092520210925B02109296
:100CA0005A02109255021092540210925D02109254
:100CB0005C02109257021092560210925F0210923C
:100CC0005E02109259021092580210926102109224
:100CD000600284E00E94FD06DF91CF910C947A03BC
:100CE0006F927F928F929F92AF92BF92CF92DF923C
:100CF000EF92FF920F931F93CF93DF9381E5C82E5E
:100D000081E0D82E02E512E09AE5A92E92E0B92EF4
:100D1000712C88248394912CF60181916F01C82F46
:100D2000C295CF70D0E099A18F70740101C0EE0C14
:100D30008A95EAF7892F8E2989A38AA16E2C60945F
:100D400086218AA30E94FF05E7E4F1E040E050E03D
:100D500020E030E06191A62FA295AF70B0E09096B0
:100D60008C9190E06F7002C0959587956A95E2F737
:100D700080FD08C0C401042E02C0880F991F0A9488
:100D8000E2F702C080E090E0282B392B4F5F5F4FE5
:100D90004A305105F9F689A1682269A28AA1E82A98
:100DA000EAA2F801808191812817390721F0318367
:100DB000208381E001C080E0782A0E5F1F4FA016DB
:100DC000B10609F0A9CF272D44E06AE572E082E57B
:100DD00092E00E94FE060E948203872DDF91CF9150
:100DE0001F910F91FF90EF90DF90CF90BF90AF9049
:100DF0009F908F907F906F9008950895FF920F932A
:100E00001F93CF93DF93F82E092F162FD72FC42FC0
:100E1000222349F081E0809388010E949F179093DC
:100E2000870180938601809188018823D9F0809181
:100E30008601909187010E94AB17069798F0EF2DDD
:100E4000F02FA12FBD2F80E090E04C2F50E08417B1
:100E5000950734F4219131912D933D930196F7CF6D
:100E600010928801DF91CF911F910F91FF9008950B
:100E7000AF92BF92CF92DF92EF92FF920F931F93A8
:100E8000CF93DF937C015B01C42FD22FFC018281C1
:100E90008823F9F040938B010E949F1790938A0159
:100EA0008093890180E28C0F883008F06EC0C77093
:100EB00081E001C0880FCA95EAF7DF91CF911F91B9
:100EC0000F91FF90EF90DF90CF90BF90AF900C9478
:100ED000A80C80918B01481335C0809189019091B5
:100EE0008A010E94AB176C01B701C5010E94DF1196
:100EF000C816D90638F510E21D0FCD17B9F080E2FB
:100F00008C0F883040F4C77081E001C0880FCA950B
:100F1000EAF70E94AF0C183058F581E09D2F9770CA
:100F200001C0880F9A95EAF70E94A80C802F0E94B2
:100F3000950C183050F5D77081E001C0880FDA9514
:100F4000EAF70AC080E28C0F8830F8F4C77081E0BD
:100F500001C0880FCA95EAF7DF91CF911F910F91D9
:100F6000FF90EF90DF90CF90BF90AF900C94AF0CBC
:100F7000802FDF91CF911F910F91FF90EF90DF9025
:100F8000CF90BF90AF900C94950CDF91CF911F91B3
:100F90000F91FF90EF90DF90CF90BF90AF900895AA
:100FA0000F939C01CB01203F4CE5340731F188F4CD
:100FB000253DFCE53F07D9F0263D4CE5340779F1A6
:100FC000243D3C45A9F506E221EE41EE64ED7CE5C9
:100FD0002BC0223FFCE53F07E1F0A8F0233F3C4552
:100FE00039F507E225EE46EE63EF7CE51DC007E22A
:100FF00025EE45EE65ED7CE517C006E221EE40EEFC
:1010000060EF7CE511C007E225EE44EE61EF7CE580
:101010000BC006E221EE42EE62EF7CE505C008E27D
:1010200021E045EE66ED7CE50E94380780E008C0CF
:10103000FC018281882319F010928B0101C081E0AC
:101040000F910895CF93DF93EC01FB0182818823F8
:1010500009F41FC1C230FCE5DF0708F41BC1C6312B
:101060009CE5D90738F09E01275F3C4529303105C2
:1010700008F010C10E94C315909367028093660226
:10108000C031ECE5DE0709F4C3C008F041C0C83048
:101090008CE5D80709F49AC0F0F4C430ECE5DE071B
:1010A00009F487C068F4C2308CE5D80709F477C02A
:1010B000C330DC4509F0E3C080916602826076C0EF
:1010C000C630ECE5DE0709F46EC008F07BC0809105
:1010D000660288606BC0CC308CE5D80709F485C007
:1010E00068F4CA30ECE5DE0709F474C008F079C092
:1010F0000E94400F80916602806858C0CE308CE517
:10110000D80709F476C008F07FC0809166028BC0D2
:10111000C83FECE5DE0709F44FC018F5C3318CE594
:10112000D80709F47DC078F4C131ECE5DE0709F495
:1011300073C0C231DC4509F0A2C00E94400F80910B
:1011400066028F7733C0C5318CE5D80709F472C0C9
:1011500008F486C0C73FDC4509F091C08091670262
:101160003EC0CC3FFCE5DF0709F45FC058F4CA3F3E
:101170009CE5D90709F444C008F43FC08091670298
:1011800082602DC0CE3FFCE5DF0709F475C008F48E
:101190005DC0CF3FDC4509F072C080E06EC0809139
:1011A0006602816003C0809166028061809366025E
:1011B00066C08091660211C0809167028260809350
:1011C00067025DC0809166028062F0CF8091660206
:1011D0008064ECCF8091660288608460E7CF816094
:1011E000EECF809166028E7FE1CF809166028D7F87
:1011F000DDCF80916602877FD9CF8091670218C0CA
:10120000809167028D7FDBCF809166028F7ECECF8B
:10121000809166028F7DCACF809166028F7BC6CF98
:1012200080916602877F8B7FC1CF809167028D7F1F
:101230008E7FC5CF8091660282FB222720F991E044
:10124000922790FB82F990FB83F9B0CF80916702DF
:10125000982F909591708E7F892B90FB81F9AFCF5D
:101260000E94400F8091660287FB222720F991E0BF
:10127000922790FB87F99ACF81E00E9452168091C5
:101280006602909167020E94D4150E94400F80E090
:1012900001C081E0DF91CF910895CF93DF93863134
:1012A0009C4541F5EB010E94F514982F8A8120910D
:1012B000030130910401882379F09A7A81E009F4DE
:1012C00080E080938C01911102C069E201C065E366
:1012D000C9010E94ED160AC080918C01811102C0E3
:1012E00069E201C065E3C9010E94F8160E94431536
:1012F00080E001C081E0DF91CF91089580918D0160
:1013000090918E01892B09F180918F01909190012C
:101310000E94AB1720910001309101012817390775
:1013200040F480918D0190918E0192600E94200383
:1013300004C080918D010E94950C10929001109232
:101340008F0110928E0110928D010895CF93DF933B
:10135000EC010E949F179093900180938F01D0938E
:101360008E01C0938D01DF91CF910895809102018C
:10137000882321F0109202010C947E0981E0809371
:1013800002010895109202010C947E091F93CF93DD
:10139000DF93EC01FB011281112309F440C0893372
:1013A000910560F48D32910528F58E319105A0F1FB
:1013B00088329105F8F08B97E9F02EC087319C4573
:1013C00091F0C8318CE5D80720F4C436D10591F0EE
:1013D00023C0C831ECE5DE0749F0C931DC45E1F452
:1013E0000E94C2091FC00E94B6091CC081E0809300
:1013F000020118C00E947E0980910201882391F0A9
:101400000E94F51481110EC0CE010E94A60982E04F
:101410000E948D1510E006C00E947E0903C00E9444
:101420007E0911E0812FDF91CF911F910895909354
:101430009601809395010895E0919501F0919601B0
:10144000309721F00190F081E02D099480E008951B
:10145000E0919501F0919601309799F02091150156
:10146000222359F02091660227FF07C0DC012C914E
:1014700011962C93119725E02C930280F381E02D97
:1014800009940895E0919501F0919601309739F013
:1014900022E0DC012C930480F581E02D099408956D
:1014A00020919301309194012817390771F090939E
:1014B000940180939301E0919501F091960130970A
:1014C00021F00680F781E02D099408952091910183
:1014D000309192012817390771F09093920180930F
:1014E0009101E0919501F0919601309721F00084EF
:1014F000F185E02D0994089585B7806885BF85B78B
:10150000806885BF089508950C94830A0C94840A1A
:101510000C94830A0C94830A0E947C0A0E94880A15
:101520000C94860A81E008950C94920A0E94961702
:101530000E940C060E943D180C948A0A7F928F929A
:101540009F92AF92BF92CF92DF92EF92FF920F9352
:101550001F93CF93DF93CDB7DEB72A970FB6F894DA
:10156000DEBF0FBECDBF0E9470060E94940A81119B
:1015700011C08FEF89838A831B820E949F1781602D
:10158000782F9D838C8349815A816B818D810E9444
:101590004F0B50C028E9E22E21E0F22E10E000E0CF
:1015A000812F0E94F5054C01F701A080B180A8268B
:1015B000B926A114B104A1F180911F0281FD0E94FE
:1015C000FE05712CCC24C394D12CC5018C219D2106
:1015D000892B01F17E821F8321E0C4018C219D2192
:1015E000892B09F420E028870E949F178160782FBB
:1015F0009A8789874E815F8168858A850E944F0B13
:10160000F701808191818C259D25918380830F5FD7
:10161000043080F47394CC0CDD1CFAE07F12D5CF3B
:101620001F5F82E0E80EF11C143009F0B9CF0023EF
:1016300009F49FCF0E940E1B0E941C0A90919701F3
:101640008917C9F00E941C0A809397012A960FB649
:10165000F894DEBF0FBECDBFDF91CF911F910F91E8
:10166000FF90EF90DF90CF90BF90AF909F908F90C2
:101670007F900C948B032A960FB6F894DEBF0FBEB2
:10168000CDBFDF91CF911F910F91FF90EF90DF9031
:10169000CF90BF90AF909F908F907F900895CF9301
:1016A000DF93CDB7DEB72B970FB6F894DEBF0FBE32
:1016B000CDBF4F83588769877A878B87DE01119664
:1016C00086E0FD0111928A95E9F785E0FE013796E3
:1016D00001900D928A95E1F749815A816B817C8155
:1016E0008D819E810E94E2112B960FB6F894DEBF89
:1016F0000FBECDBFDF91CF910895FC018081918114
:101700000E94B6140895CF93882309F4A4C0C82F6B
:101710008238C1F40E941C0A81FD9DC069E380915A
:101720000301909104010E94ED160E9443152FEFD2
:1017300081EE94E0215080409040E1F700C000002D
:1017400069E319C0833801F50E941C0A80FD83C03B
:1017500063E580910301909104010E94ED160E94BF
:1017600043152FEF81EE94E0215080409040E1F747
:1017700000C0000063E580910301909104010E9484
:10178000F816CF910C9443158438C1F40E941C0ABA
:1017900082FD61C067E480910301909104010E9481
:1017A000ED160E9443152FEF81EE94E0215080400A
:1017B0009040E1F700C0000067E4DDCF8CEF8C0FB4
:1017C000813AD0F46C2F80910301909104010E9422
:1017D0006D16882349F06C2F8091030190910401CC
:1017E0000E94F8160E9443156C2F8091030190917E
:1017F00004010E94ED16C5CF80E28C0F883048F4BA
:10180000C77081E001C0880FCA95EAF70E94F814FA
:10181000B8CFEBE5EC0FE33040F4F0E0ED57FE4FCE
:10182000808190E0CF910C94500AE8E5EC0FE7310D
:1018300050F4F0E0EE0FFF1FEB5AFE4F80819181D4
:10184000CF910C94660AC03F30F08C2F0E94031A8F
:10185000CF910C94F01ACF910895882309F464C0B5
:10186000823879F40E941C0A81FF5EC069E380918E
:101870000301909104010E94ED160E94431569E353
:1018800010C08338B1F40E941C0A80FF4DC063E58C
:1018900080910301909104010E94ED160E9443156E
:1018A00063E580910301909104010E94F8160C9465
:1018B0004315843879F40E941C0A82FF35C067E41E
:1018C00080910301909104010E94ED160E9443153E
:1018D00067E4E7CF9CEF980F913A10F4682FE1CFBF
:1018E00090E2980F983050F4877091E001C0990F02
:1018F0008A95EAF7892F0E94FE14D9CF9BE5980FAD
:10190000933020F480E090E00C94500A98E5980F12
:10191000973120F480E090E00C94660A803F20F03C
:101920000E946B1A0C94F01A0895CF93C82F0E944E
:10193000830BC93349F42FEF87EE93E021508040A9
:101940009040E1F700C000008C2FCF910C942D0C3B
:10195000882321F00E94F8140C94431508958823DD
:1019600021F00E94FE140C9443150895CF92DF924B
:10197000EF92FF920F931F93CF93DF937C01062F7B
:10198000C72FFC01158112951F70D281D1110E94C1
:1019900015150E94EE14882399F0DD2389F08C2F11
:1019A000807F803421F080E2800F883048F082E030
:1019B0000E948D150E94EE1491E0D82ED92601C008
:1019C000D12CCC2EC2948FE0C8228C2D90E0FC014B
:1019D000EA5AFF4F0C9411238C2F807FCF708823FD
:1019E00011F0C295C07FDD2399F0CC2309F487C1A3
:1019F00080E2800F883010F0011104C08C2F0E940B
:101A0000F81403C08C2F0E9408150E94431577C15B
:101A1000802F0E942D0CCC2309F496C180E2800F08
:101A2000883010F0011104C08C2F0E94FE1403C0F6
:101A30008C2F0E940E150E94431586C18C2F807F2B
:101A4000CF70803211F0C295C07F002319F00130B1
:101A5000C9F025C0DD2371F0112341F0113031F4BC
:101A60000E9428158C2B0E9430156EC10E942815EB
:101A70008C2B0EC0112319F0113009F465C10E949E
:101A800039151FC0DD2339F0163008F05DC18C2FE9
:101A90000E94A80C59C1153008F056C112C0DD23B0
:101AA00019F01123A1F32BC1112359F0093309F0C7
:101AB00037C1FFEF27EE83E0F15020408040E1F78F
:101AC0002DC18C2F0E94AF0C3FC18C2F869586951F
:101AD000837019F0813061F037C1DD2321F0802F50
:101AE0009C2F937002C080E090E00E94500A34C1A5
:101AF000DD2321F0802F9C2F937002C080E090E0C6
:101B00000E94660A29C1802FDD2319F00E94031A62
:101B100002C00E946B1A0E94F01A1EC18C2F8370A3
:101B200009F045C0D11114C1402F42954695477028
:101B3000440F440F602F6F70862F90E0A0E0B0E05C
:101B4000042E04C0880F991FAA1FBB1F0A94D2F746
:101B500004FF10C00FE010E020E030E004C0000FF0
:101B6000111F221F331F4A95D2F70095109520951B
:101B7000309503C000E010E09801C695C695C3708B
:101B8000BC01CD01602B712B822B932BC23049F00D
:101B900058F4C13019F00E943313DAC00E942113A7
:101BA000D7C00E944513D4C00E941F13D1C0DD23AB
:101BB00019F08C2F817001C08695882309F4C8C064
:101BC000402F429546954770440F440F602F6F7029
:101BD000862F90E0A0E0B0E0042E04C0880F991F8B
:101BE000AA1FBB1F0A94D2F704FF10C00FE010E039
:101BF00020E030E004C0000F111F221F331F4A9560
:101C0000D2F7009510952095309503C000E010E0C4
:101C10009801C695C695C370BC01CD01602B712B90
:101C2000822B932BC23049F058F4C13019F00E9436
:101C3000F8138EC00E94E6138BC00E940A1488C05D
:101C40000E94591385C0CF70DD2339F08C2F0E947C
:101C50007F13802F0E94A80C7BC0802F0E94AF0CA6
:101C60008C2F0E94A01374C0023F01F128F4003FA2
:101C700041F0013FA1F03FC0033FF9F0043F39F1CB
:101C80003AC0DD2341F0153008F05EC08C2F8F7113
:101C90000E94C51359C0163008F056C0F7CFDD2397
:101CA00039F08C2F8F710E947F134EC0DD23C9F352
:101CB0008C2F8F710E94A01347C0DD2329F08C2F39
:101CC0008F710E946A1340C00E9465133DC0DD23DE
:101CD00049F0CF718C2F0E947F1363E08C2F0E94FC
:101CE000781532C081E00E948D15123068F182E0D3
:101CF0000E948D1529C0DD2331F0112391F2802F30
:101D00000E94830B21C0112399F2093349F49FEFFC
:101D1000E7EEF3E09150E040F040E1F700C0000052
:101D2000802F0E942D0C10C04C2F4F70602FC701C8
:101D30000E94E7030E9490120FC04C2F4F70602F3B
:101D4000C7010E94EA0308C088EF8C0D843020F49C
:101D50000E941C0A0E948B03DD20C9F00E94EA1435
:101D600080FD15C0F70112820E94E4140E947F13C7
:101D7000C7010E94E80E0E94E414DF91CF911F91E9
:101D80000F91FF90EF90DF90CF900C94A013DF9114
:101D9000CF911F910F91FF90EF90DF90CF9008951A
:101DA0000F931F93CF93DF93EC01688179818A8130
:101DB0000E94C1148C010E941C140E940D13B801D2
:101DC000CE010E94B60CDF91CF911F910F91089523
:101DD000CF93DF93EC01988189812B813C81232B68
:101DE00031F08F3F31F481E09F3F19F403C081E06F
:101DF00001C080E080FD19C0CE010E94A4038111C2
:101E00000CC00E94EE14882381F08A81882369F037
:101E100082E0DF91CF910C948D15CE010E94D00EFF
:101E2000CE01DF91CF910C946F03DF91CF91089594
:101E3000882321F00E9408150C94431508958823E7
:101E400021F00E940E150C94431508950E9415155B
:101E50000E9425150E9443150E94211C0E94F01A21
:101E600080E090E00E94500A80E090E00C94660AC6
:101E700080910301909104010E9403170C94260F96
:101E80000E9405150C94380FE92FE295EF704E2F44
:101E900050E0FA013297EE30F105B0F4EA59FF4F05
:101EA0000C941123803F91F018F4883E68F40EC022
:101EB000843F51F40BC0883E48F0813F29F406C0AE
:101EC00093FB882780F9089580E0089581E00895C4
:101ED0000E94B6140E94440F0895CF93DF9300D060
:101EE00000D01F92CDB7DEB70F900F900F900F90DC
:101EF0000F90DF91CF910895CF93DF9300D000D062
:101F000000D0CDB7DEB726960FB6F894DEBF0FBE71
:101F1000CDBFDF91CF9108951F93CF93DF93C091F1
:101F2000A10116E08091A201C81799F0D0E01C9F92
:101F3000F0011D9FF00D1124ED55FE4F40815181A0
:101F400062817381848195810E947C0F2196C77084
:101F5000E9CFDF91CF911F9108954091D301509126
:101F6000D4016091D5017091D6018091D7019091F3
:101F7000D8010C947C0F0F931F93CF93DF93809124
:101F8000D80182958F7009F05DC08091D5018823BA
:101F900009F458C08091A1011091A2016091D30170
:101FA0007091D401C091D601D091D70191E06F3FDB
:101FB00009F090E0292F06E0811709F443C020972B
:101FC00021F07F3F21F030E003C031E001C0322F2B
:101FD00090E030FD34C0089FF001099FF00D1124FE
:101FE000DF01AD55BE4F11963C911197371327C0B5
:101FF0003C91361324C012963C91129731111FC0A8
:1020000013964D915C9114974C1B5D0B483C510508
:10201000B0F48091D8018F7080618093D801E85529
:10202000FE4F80818F708061808383ED91E00E94FC
:10203000E80EDF91CF911F910F910C948C0F0196B8
:102040008770BACFDF91CF911F910F9108959F9222
:10205000AF92BF92CF92DF92EF92FF920F931F93B6
:10206000CF93DF93CDB7DEB761970FB6F894DEBF9D
:102070000FBECDBF8C0185E0F801DE011D960190F9
:102080000D928A95E1F7F80140815181E2809091AB
:10209000D3016091D4012091D6013091D70121154F
:1020A000310531F06F3F31F481E09F3F19F403C0F7
:1020B00081E001C080E0F82FF1709F2E80FD2CC1DF
:1020C000F801A380B48083EDC82E81E0D82EF09073
:1020D000D501F501E21BF30BFF2009F4EBC0809161
:1020E000D801E83CF10508F0A7C0282F207F09F0AF
:1020F00052C0561313C0491311C0FE2CE1100EC07C
:102100008F7080618093D8010E94AD0FC6010E943C
:10211000E80E8091D801F80185833EC1AB2831F0EB
:102120005F3F31F481E04F3F19F403C081E001C00B
:1021300080E080FD03C081E08E2502C080E090E059
:10214000F82FF170FF2E80FF1CC08091A10120911B
:10215000A20136E0821709F4FDC090E0389FF0013B
:10216000399FF00D1124ED55FE4F6181561306C0C5
:102170006081461303C06281E61203C00196877036
:10218000E9CFFE2CEE2009F407C18091D8018160CF
:102190008093D80166C0561312C0491310C0E110D5
:1021A0000EC0F8018583C8010E94E80E86E0F801A0
:1021B000A3EDB1E001900D928A95E1F7C8C04D877B
:1021C0005E878D859E850E94680F882379F1EE20B9
:1021D00069F12091D801822F82958F7090E002974B
:1021E00074F08091D3019091D40198878F831986E0
:1021F000BB86AA862C87CE0107960E94E80E86E051
:10220000F801A3EDB1E001900D928A95E1F70E94EB
:10221000BB0F0E94AD0F0DC0561729F14D875E8789
:102220008D859E850E94680F81112CC0C8010E9477
:10223000E80EFF24F394B0C0282F207F69F77A2D91
:10224000B98AA88A6E2D89890E946D0F83ED91E06D
:102250000E94E80E86E0F60111928A95E9F70E9445
:10226000AD0FF12C99C04913D9CFE110D7CFF801A8
:102270008583C8010E94E80E86E0F60111928A95D6
:10228000E9F78AC0EE2091F22091D801822F829541
:102290008F7090E002970CF4B2CF8091D3019091AF
:1022A000D4019A8389831B82BD82AC822E83CE01A6
:1022B0000196A3CFE83CF10510F5FE2CEE2009F4C1
:1022C000B5CF56130BC0491309C086E0F801A3ED42
:1022D000B1E001900D928A95E1F75EC04D875E876F
:1022E0008D859E850E94680F811189CF8091D801CC
:1022F00081608093D801C8010E94E80E4DC07A2DFC
:10230000B98AA88A6E2D89890E946D0F86E0F60130
:1023100011928A95E9F71BC0EE2009F487CF4D870B
:102320005E878D859E850E94680FF82E882309F4AC
:102330007DCF86E0F801A3EDB1E001900D928A9582
:10234000E1F783ED91E00E947D0B0E94BB0F0E949C
:10235000AD0F22C04D875E878D859E850E94B61485
:10236000292F22952F70223028F49F7039F0811187
:1023700005C00BC0243028F49F7049F4805E88307B
:1023800020F0C8010E94E80E9F2CF92C05C0F8012E
:102390009581907F99F7F9CF8F2D61960FB6F894BC
:1023A000DEBF0FBECDBFDF91CF911F910F91FF9088
:1023B000EF90DF90CF90BF90AF909F90089588EC02
:1023C00090E008951F93CF93DF93CDB7DEB72C979E
:1023D0000FB6F894DEBF0FBECDBF4F835887698715
:1023E0007A878B879C87CE0107960E9427108823C7
:1023F000D1F09F8188852A853B85232B31F08F3F43
:1024000031F481E09F3F19F403C081E001C080E016
:1024100080FD47C04F81588569857A858B859C856D
:102420000E947C0F3EC086E0FE013796DE011196C9
:1024300001900D928A95E1F7FF81E8856A857B8599
:102440006115710531F0EF3F31F481E0FF3F19F480
:1024500003C081E001C080E080FD23C02091A20183
:1024600030E0C9010196877099274091A10150E0A1
:1024700084179507F1F1F983EA837D836C8396E0F5
:10248000929FD001939FB00D1124AD55BE4FFE0118
:10249000319601900D929A95E1F78093A2010E94E6
:1024A0008C0F16E08091A1019091A201891771F122
:1024B000189FC00111248D559E4F0E94271088231C
:1024C00029F1E091A1011E9FF0011124ED55FE4F6D
:1024D0004081518162817381848195810E947C0F4A
:1024E0008091A10190E00196877099278093A101C6
:1024F000D9CF0E94400F1092A2011092A101E3EDEA
:10250000F1E086E0DF011D928A95E9F72C960FB67F
:10251000F894DEBF0FBECDBFDF91CF911F9108951C
:10252000EF92FF920F931F93CF93DF938C01892B30
:1025300009F46CC0F12CEE24E394E8012196F80133
:102540008491843740F4843008F051C0813081F0A8
:10255000823019F15BC0853709F444C0A8F19CE7CB
:10256000980F903708F052C08F770E942D0C41C011
:102570000E5F1F4FFE01849190E2980F983050F447
:102580008770FE2D01C0FF0F8A95EAF78F2F0E94FA
:10259000181514C00E94830B2DC00E5F1F4FFE0143
:1025A000849190E2980F983060F48770FE2D01C0FE
:1025B000FF0F8A95EAF78F2F0E941E150E94431580
:1025C00019C00E942D0C16C00E5F1F4FFE01C49152
:1025D000CC2381F08FE99FE00197F1F700C0000064
:1025E000C150F6CF0E5F1F4FFE01F49003C00E9452
:1025F000830B8E018F2D882309F49FCFEFE9FFE035
:102600003197F1F700C000008150F5CFDF91CF91F5
:102610001F910F91FF90EF900895089508950C94E5
:102620000E130C940F130E9411136093F601709314
:10263000F7018093F8019093F9010C94260F0C9404
:1026400013130F931F930091F6011091F70120913E
:10265000F8013091F901602B712B822B932B1F9184
:102660000F910C9413130F931F930091F601109187
:10267000F7012091F8013091F90160237123822341
:1026800093231F910F910C9413130F931F93009199
:10269000F6011091F7012091F8013091F9016027BE
:1026A0007127822793271F910F910C9413130C9479
:1026B0000E130E9457136093F2017093F3018093FD
:1026C000F4019093F5010C94260F60E070E0CB01CB
:1026D0000C9459130F931F9341E050E060E070E0B9
:1026E0008A019B0104C0000F111F221F331F8A950E
:1026F000D2F7C901B8011F910F910C9459130F9390
:102700001F9341E050E060E070E004C0440F551FAB
:10271000661F771F8A95D2F78091F2019091F3019D
:10272000A091F401B091F5018A019B01082B192BAE
:102730002A2B3B2BC901B8011F910F910C945913FF
:102740000F931F9341E050E060E070E004C0440F3D
:10275000551F661F771F8A95D2F740955095609553
:1027600070958091F2019091F301A091F401B091E4
:10277000F5018A019B01082319232A233B23C90160
:10278000B8011F910F910C9459130F931F9341E0BF
:1027900050E060E070E004C0440F551F661F771FD3
:1027A0008A95D2F78091F2019091F301A091F40102
:1027B000B091F5018A019B01082719272A273B2799
:1027C000C901B8011F910F910C9459130F931F93D6
:1027D0000091F2011091F3012091F4013091F50183
:1027E000602B712B822B932B1F910F910C945913FB
:1027F0000F931F930091F2011091F3012091F401C6
:102800003091F50160237123822393231F910F914F
:102810000C9459130F931F930091F2011091F3013F
:102820002091F4013091F5016027712782279327C9
:102830001F910F910C94591308952AE0929F800DD7
:102840001124E82FE695E695E695877051E001C0E2
:10285000550F8A95EAF785E0E89FF0011124E752C9
:10286000FE4F20E030E070E04081CB01022E02C03C
:10287000969587950A94E2F7817081958427852340
:10288000842781932F5F3F4F2530310569F70895E5
:102890002AE0929F800D1124682F669566956695B3
:1028A000982F977085E0689FB001112440E050E0B8
:1028B00080E0FB01E40FF51FE752FE4F208130E07E
:1028C000092E02C0369527950A94E2F72170332726
:1028D000042E01C0220F0A94EAF7822B4F5F5F4F4C
:1028E0004530510531F70895BF92CF92DF92EF92B4
:1028F000FF920F931F93CF93DF938C01C090F2014F
:10290000D090F301E090F401F090F5018091F60190
:102910009091F701A091F801B091F901C82AD92A44
:10292000EA2AFB2ACFE1D0E0D701C6010C2E04C071
:10293000B695A795979587950A94D2F780FD04C020
:10294000219790F7B12C07C0BC2EB8018C2F0E94A4
:1029500006040197A9F38B2DDF91CF911F910F9161
:10296000FF90EF90DF90CF90BF900895CF93DF93CB
:10297000EC010E947414BE010E940604DF91CF9105
:1029800008951F93CF93DF93EB019091A0019923BA
:1029900021F0CB010E94B61413C0882349F0CB016B
:1029A0000E947414182F682FCE010E941D1404C0B9
:1029B000CB010E944814182FBE01812F0E940604EB
:1029C000DF91CF911F9108958091FA0185958595AA
:1029D000859508958091FA01877008959091FA0184
:1029E000977081E009F480E0089580911E020895B7
:1029F00090911E02892B80931E02089580959091DC
:102A00001E02892380931E02089510921E020895CB
:102A100090911D02892B80931D02089580959091BD
:102A20001D02892380931D02089510921D020895AE
:102A300090911C02892B80931C020895809590919F
:102A40001C02892380931C02089510921C02089591
:102A50008091FB01089508950C942B150C942C156E
:102A60009091FB01981721F08093FB010C942E1597
:102A700008958091FB01882329F01092FB0180E0EA
:102A80000C942E150895E0910301F09104018091BA
:102A90001E028083E0910301F091040190818091F6
:102AA0001D02892B8083E0910301F0910401908144
:102AB00080911C02892B80838091FB01882381F007
:102AC000E0910301F09104019081892B8083809132
:102AD0000301909104010E94571681110E9439153B
:102AE00080910301909104010C94280A0C942B15F9
:102AF00098E0899F90011124262B2093FA010E94CF
:102B00007F138091FA018595859585950C947615AE
:102B10001092FA0180E00C9476152091FA018095CC
:102B200082238093FA01982F977079F430E0482F30
:102B3000082E000C550B2417350739F0859585951F
:102B400085950E94A0130C948815089580E090E06C
:102B50000E94332321E08C3E9E4F09F020E0822F1B
:102B6000089582E090E00C942B23682F82E090E09F
:102B70000C94392383E090E00C942B23682F83E09E
:102B800090E00C943923CF9384E090E00E942B23B3
:102B9000C82F81E290E00E942B232C2F30E0A90166
:102BA000582BCA01CF910895CF93C92F682F84E085
:102BB00090E00E9439236C2F81E290E0CF910C9439
:102BC0003923AB01BC018FE090E00C944B23AB01A7
:102BD000BC0183E190E00C944B2360E070E0CB01FA
:102BE0000C94E71560E070E0CB010E94E1150C94B5
:102BF000ED156CEE7EEF80E090E00E94572360E0E0
:102C000082E090E00E94392360E083E090E00E943F
:102C100039231092F6011092F7011092F8011092E8
:102C2000F90160E084E090E00E94392360E081E2F5
:102C300090E00E94392360E085E090E00E94392313
:102C400060E086E090E00E9439236FEF87E090E03B
:102C50000E94392340E050E0BA0188E090E00E94F1
:102C60004B2360E08DE090E00E94392340E050E08B
:102C7000BA0188E190E00E944B2360E087E190E098
:102C80000E94392340E050E0BA018CE190E00E94BC
:102C90004B2360E080E290E00E9439230C94F2150F
:102CA0000C94F915682F8EE090E00C943923FC0108
:102CB000329680911501882331F08091660287FF5A
:102CC00002C09EE101C096E080E0915028F0219181
:102CD0002223D9F38F5FF9CF0895662351F1209114
:102CE00015012223E9F02091660227FF19C0462F23
:102CF0004695469546954E31E0F4677021E030E008
:102D000002C0220F331F6A95E2F7FC01E40FF11DA8
:102D1000828190E02823392381E0232B69F409C0C4
:102D2000FC01329608962191621729F0E817F907FD
:102D3000D1F780E0089581E008959C01FC0132966E
:102D40009FEF80E04191461789F09F3F19F44111B0
:102D500001C0982F8F5F8630A9F79F3F39F0F901A6
:102D6000E90FF11D97FDFA956283089508959C017E
:102D70002A5F3F4FFC014281461301C01282019637
:102D800082179307B9F70895262F2695269526953D
:102D90002E3168F4FC01E20FF11D677021E030E094
:102DA00001C0220F6A95EAF78281282B22830895B9
:102DB000262F2695269526952E3170F4FC01E20FDC
:102DC000F11D677021E030E001C0220F6A95EAF73B
:102DD00020958281282322830895209115012223A2
:102DE00029F02091660227FD0C94C4160C949D16C0
:102DF00020911501222329F02091660227FD0C94D1
:102E0000D8160C94B71620911501FC013296222396
:102E100031F08091660287FF02C08EE101C086E03A
:102E2000DF011D928A95E9F7089508950C9415170E
:102E30000C941517CF930E9418170E9470060E94D9
:102E40001617C0E08C2F0E94F505892B29F4CF5F5F
:102E5000C430C1F780E001C081E0CF9108950C94A7
:102E600015170C942F170E94311780916C02843033
:102E700049F11092200220E488E190E00FB6F89426
:102E8000A895809360000FBE2093600080E00E94B0
:102E90008B030E94311783B7817F846083BF83B720
:102EA000816083BF7894889583B78E7F83BF0FB688
:102EB000F894A895809160008861809360001092DA
:102EC00060000FBE08950C9415170E94400F0E94D9
:102ED0001C0A0E948B030C9463171F920F920FB66B
:102EE0000F9211248F939F93AF93BF9380912002F1
:102EF000811113C08091620290916302A0916402DB
:102F0000B09165024196A11DB11D8093620290931C
:102F10006302A0936402B0936502BF91AF919F9149
:102F20008F910F900FBE0F901F90189582E084BD77
:102F300093E095BD9AEF97BD80936E0008952FB7EB
:102F4000F8948091620290916302A0916402B09122
:102F500065022FBF08959C014FB7F89480916202DB
:102F600090916302A0916402B09165024FBF821BF1
:102F7000930B089578941F920F920FB60F9211241D
:102F80008F939F93AF93BF9380916202909163025E
:102F9000A0916402B09165020196A11DB11D8093BC
:102FA000620290936302A0936402B0936502BF91A2
:102FB000AF919F918F910F900FBE0F901F9018951A
:102FC00087E797E790930108809300089AE088E1EB
:102FD0000FB6F894A895809360000FBE90936000A0
:102FE000FFCFAF92BF92CF92DF92EF92FF920F93FB
:102FF0001F93CF93C0E0CC24C394D12CE82EF12CA6
:103000008C2F0E94F5055C0100E010E0C601002E47
:1030100002C0880F991F0A94E2F78A219B21892B0D
:1030200031F40F5F1F4F0A30110581F70AC0602F7E
:103030007C2F80E00E94EB03E816F90691F781E00F
:1030400004C0CF5FC430E1F680E0CF911F910F91B3
:10305000FF90EF90DF90CF90BF90AF900895CF9307
:10306000C82F8CE20E94F117882321F08C2FCF917A
:103070000C94F11780E0CF910895CF930E94A6158C
:10308000811102C00E945016C5E6C15049F00E944D
:1030900070068FE39CE90197F1F700C00000F5CFBF
:1030A00089E20E942F1881112AC18AE20E942F18FA
:1030B00081110E94501685E00E942F1881110E94F4
:1030C000E0170E94B11580931F0287E00E942F181D
:1030D0008823A9F18BE10E942F18882351F0809159
:1030E0001F0281FB222720F991E0922790FB81F9B2
:1030F0000EC08EE00E942F18882361F080911F027D
:1031000082FB222720F991E0922790FB82F980939D
:103110001F0215C080E10E942F1890911F02882382
:1031200041F093FB222720F981E0822780FB93F96D
:1031300004C0892F809580FB90F990931F028091A5
:103140001F020E94B5150E94C315909367028093D9
:10315000660280EE0E942F18882341F0809166025B
:10316000982F909590FB80F98093660289E30E94E6
:103170002F18882359F08091660281FB222720F9BD
:1031800091E0922790FB81F98093660282EE0E9483
:103190002F18882359F08091660282FB222720F99C
:1031A00091E0922790FB82F98093660286EE0E945E
:1031B0002F18882359F08091660283FB222720F97B
:1031C00091E0922790FB83F98093660283EE0E9440
:1031D0002F18882359F08091660284FB222720F95A
:1031E00091E0922790FB84F98093660285E30E9428
:1031F0002F18882359F08091660285FB222720F939
:1032000091E0922790FB85F98093660281E30E940A
:103210002F18882359F08091660286FB222720F917
:1032200091E0922790FB86F98093660281E10E94EB
:103230002F18882359F08091660287FB222720F9F6
:1032400091E0922790FB87F9809366028091660255
:10325000909167020E94D41587E20E942F18C82F10
:103260008EE10E942F188111C2608FE10E942F18F9
:103270008111C46080E20E942F188111C86081E230
:103280000E942F188111C06182E20E942F188111C3
:10329000C06283E20E942F188111C06484E20E9400
:1032A0002F18882311F0C06802C0CC2329F08C2F7E
:1032B0000E94BE156C2F03C00E94BA15682F70E0E3
:1032C00080E090E00E941F136091F2017091F30181
:1032D0008091F4019091F5010E9457138FE00E94B4
:1032E0002F18882319F081E00E94521685E10E9470
:1032F0002F18882321F080E0CF910C945216CF91A3
:1033000008958091290280FF0BC06091090185E03A
:10331000689FB001112475956795759567952BC0C9
:1033200081FF09C06091090185E0689FB001112407
:103330007595679520C082FF07C06091090185E0FF
:10334000689FB001112417C0909128029923D1F0F1
:1033500060910801961788F72091090185E0289F60
:1033600090011124929FA001939F500D112470E0B1
:10337000CA010E94FD226038710540F46115710593
:1033800019F406C065E070E0862F08958FE7089570
:1033900081E008958091290280FF08C060910601B4
:1033A00070E0759567957595679521C081FF06C09A
:1033B0006091060170E07595679519C082FF04C0A1
:1033C0006091060170E010C090912702992399F056
:1033D000609105019617A0F780910601899FC001B1
:1033E000112470E00E94FD226038710540F46115DF
:1033F000710519F406C061E070E0862F08958FE72B
:10340000089581E00895803F21F40E9481198195FB
:1034100004C0813F29F40E94811980932D020895F0
:10342000823F21F40E948119819504C0833F29F4D1
:103430000E94811980932C020895893F19F40E94FB
:10344000CA1905C08A3F31F40E94CA198195809338
:103450002E0208958B3F21F40E94CA19819504C061
:103460008C3F29F40E94CA1980932F020895843F4B
:1034700021F480912B02816017C0853F21F4809157
:103480002B02826011C0863F21F480912B02846060
:103490000BC0873F21F480912B02886005C0883FD4
:1034A00031F480912B02806180932B0208958D3F2F
:1034B00021F48091290281600BC08E3F21F480911C
:1034C0002902826005C08F3F29F48091290284601F
:1034D000809329020895803F39F480912D0287FF5F
:1034E0006AC010922D0267C0813F29F480912D029D
:1034F0001816BCF360C090912C02823F29F497FF0C
:103500005AC010922C0257C0833F19F41916CCF3FD
:1035100052C090912E02893F31F419160CF04BC025
:1035200010922E0248C08A3F19F497FF44C0F8CF8A
:103530008B3F39F480912F0287FF3DC010922F02FC
:103540003AC08C3F29F480912F021816BCF333C087
:10355000843F21F480912B028E7F17C0853F21F498
:1035600080912B028D7F11C0863F21F480912B0228
:103570008B7F0BC0873F21F480912B02877F05C092
:10358000883F31F480912B028F7E80932B0213C0F1
:103590008D3F21F4809129028E7F0BC08E3F21F454
:1035A000809129028D7F05C08F3F29F480912902E7
:1035B0008B7F8093290280912C02811106C080911B
:1035C0002D02811102C01092280280912E028111D9
:1035D00006C080912F02811102C010922702089527
:1035E0000E949F1720912C02211104C020912D02CE
:1035F000222321F0909326028093250220912E020F
:10360000211104C020912F02222321F09093240243
:10361000809323028AE292E00C94420AEF92FF9296
:103620000F931F93CF93DF9300D000D000D0CDB77E
:10363000DEB786E0EAE2F2E0DE01119601900D923B
:103640008A95E1F7E0902C02F0902D0200912E0275
:1036500010912F0210922C0210922D0210922E0225
:1036600010922F02E11003C0FF2009F45DC0809189
:103670002502909126020E94AB17AC01909128027E
:10368000992339F020910A0130E02417350758F0CA
:103690004BC0209122028AE0289F90011124241718
:1036A000350718F041C09F3F19F09F5F90932802A3
:1036B000EE2061F00E9481191E1414F09FEF01C0EA
:1036C00091E0989F902D112490932C02FF2061F09F
:1036D0000E9481191F1414F09FEF01C091E0989F80
:1036E000902D112490932D0230912C023323E1F080
:1036F00020912D022223C1F045EB3403C001112497
:10370000992319F090932C0203C081E080932C023E
:1037100035EB2303C0011124992319F090932D0256
:1037200003C081E080932D02011103C0112309F42D
:103730005DC080912302909124020E94AB17AC01DE
:1037400090912702992339F02091070130E0241746
:10375000350758F04BC0209121028AE0289F900144
:1037600011242417350718F041C09F3F19F09F5FBF
:1037700090932702002361F00E94CA19101614F0DA
:103780009FEF01C091E0989F902D112490932E02FD
:10379000112361F00E94CA19111614F09FEF01C0A5
:1037A00091E0989F902D112490932F0230912E023A
:1037B0003323E1F020912F022223C1F045EB3403A3
:1037C000C0011124992319F090932E0203C081E0C7
:1037D00080932E0235EB2303C0011124992319F0A5
:1037E00090932F0203C081E080932F0280912C02DE
:1037F00081110BC080912D02811107C080912E0292
:10380000811103C080912F0281110E94F01AEB8276
:10381000FC820D831E8386E0FE013196AAE2B2E0AF
:1038200001900D928A95E1F726960FB6F894DEBFC7
:103830000FBECDBFDF91CF911F910F91FF90EF9001
:103840000895EAE2F2E086E0DF011D928A95E9F749
:103850001092280210922702109229020895809156
:1038600050020895CF93DF9300D01F92CDB7DEB7FB
:1038700090916C02943019F589837B836A8382E08E
:103880008093E9008FEF9091E800815095FD06C08C
:1038900095ED9A95F1F700008111F5CF8091E80040
:1038A00085FF0DC040E050E063E070E0CE0101967E
:1038B0000E945F1E8091E8008E778093E8000F9051
:1038C0000F900F90DF91CF910895BC0184E00C948C
:1038D000321CBC0183E00C94321C22E02093E900EE
:1038E0002FEF3091E800215035FD06C035ED3A95B7
:1038F000F1F700002111F5CF2091E80025FF0BC062
:1039000040E050E066E070E00E945F1E8091E800B9
:103910008E778093E8000895CF93DF93209115016F
:10392000222339F02091660227FF03C060E222E0E3
:1039300002C068E021E02093E9002FEF3091E80019
:10394000215035FD06C035ED3A95F1F70000211103
:10395000F5CF2091E80025FF1DC0EC0180911501F5
:10396000811105C040E050E068E070E003C070E005
:1039700040E050E0CE010E945F1E8091E8008E770B
:103980008093E80080E2FE01A0E3B2E001900D9296
:103990008A95E1F7DF91CF91089580916B028111B3
:1039A00009C00E94F01F0E944D208091E2008460B7
:1039B0008093E200089510926B020895089508958F
:1039C0000C94651742E061EC81E00E94691F42E2BD
:1039D00061EC82E00C94691F80916E02833009F4DF
:1039E00060C030F4813071F0823009F499C00895DC
:1039F0008A3009F485C08B3009F46BC0893009F036
:103A0000A7C020C080916D02813A09F0A1C08091C9
:103A1000E800877F8093E8008091710290917202A4
:103A2000892B21F460E280E392E003C060E080E053
:103A300090E070E00E94AA1E8091E8008B7780934E
:103A4000E800089580916D02813209F081C0809173
:103A5000710290917202029708F07AC08091E8009A
:103A6000877F8093E8008091E80082FD05C0809107
:103A70006C028111F8CF6CC02091F3008091F200AC
:103A800090E0922B029729F48091F1008B7F813096
:103A900021F48091F100809350028091E8008B77AF
:103AA00053C080916D02813A09F052C08091710239
:103AB00090917202892B09F04BC08091E800877FBA
:103AC0008093E8008091E80080FFFCCF8091150191
:103AD00036C080916D028132D9F58091710290914A
:103AE0007202892BA9F58091E800877F8093E80016
:103AF0000E949E1F80916F02809315010C94400FCD
:103B000080916D02813221F58091E800877F80935A
:103B1000E8000E949E1F80917002809351020895D8
:103B200080916D02813AA1F48091E800877F8093B3
:103B3000E8008091E80080FFFCCF809151028093E3
:103B4000F1008091E8008E778093E8000C949E1F2E
:103B5000089584B7877F84BF0FB6F894A8958091A5
:103B60006000886180936000109260000FBE90E05A
:103B700080E80FB6F89480936100909361000FBEC7
:103B80000E948C0A0E94F01F0E944D208091E2004A
:103B900084608093E20078940E94E2220E94960A58
:103BA0008BE091E00E94170A80916C02853069F4E5
:103BB0000E94331780916A028823B1F30E941A177A
:103BC000882391F30E94491EEFCF0E949E0AECCFFA
:103BD0000C94EA1D292F332723303105C9F060F4F6
:103BE0002130310581F02230310509F04AC08BE3E4
:103BF00090E022EB33E049C02132310511F122324D
:103C0000310579F13EC082E190E02DEE33E03DC018
:103C100099278130910561F040F08230910559F08B
:103C2000039779F5ECE7F3E008C0EEEAF3E005C0AE
:103C3000E6E9F3E002C0E2E8F3E0849190E09F015E
:103C400024C06115710541F061307105D1F489E03E
:103C500090E02DED33E019C089E090E024EC33E0F2
:103C600014C06115710541F06130710551F48CEBA0
:103C700090E02FEF33E009C080E490E02BEB34E0DC
:103C800004C080E090E020E030E0FA01318320833E
:103C9000089580E189BD82E189BD09B400FEFDCFB0
:103CA0008091D8008F7D8093D8008091E000826061
:103CB0008093E0008091E00081FDFCCF0895CF92D9
:103CC000DF92EF92FF920F931F93CF93DF93EC015C
:103CD0008B017A010E94BD1F811133C0E114F104F0
:103CE00039F0F70180819181081B190BC80FD91F8A
:103CF000C12CD12C0115110519F18091E80085FD29
:103D000016C08091E8008E778093E800E114F104FA
:103D100049F0F70180819181C80ED91ED182C082FD
:103D200085E00FC00E94BD1F882321F30AC089913E
:103D30008093F10001501109FFEFCF1ADF0ADACFAB
:103D400080E0DF91CF911F910F91FF90EF90DF9076
:103D5000CF9008952091730230917402261737078F
:103D600048F06115710539F42091E8002E77209311
:103D7000E80001C0B901FC0120E06115710579F18D
:103D800080916C028823F1F18530F1F18091E80097
:103D900083FD3CC08091E80082FD2EC08091E80048
:103DA00080FFEBCF2091F3008091F20090E0922B06
:103DB0006115710551F08830910538F421912093F7
:103DC000F100615071090196F3CF21E0089709F0E5
:103DD00020E08091E8008E778093E800CECF21111B
:103DE000CFCF0AC080916C02882361F0853061F0EA
:103DF0008091E80083FD0AC08091E80082FFF2CF45
:103E000080E0089582E0089583E0089581E00895B8
:103E100020917302309174022617370748F061151C
:103E2000710539F42091E8002E772093E80001C055
:103E3000B901FC0120E06115710591F180916C02DE
:103E4000882309F440C0853009F43FC08091E80020
:103E500083FD3DC08091E80082FD2FC08091E80085
:103E600080FFE9CF2091F3008091F20090E0922B47
:103E70006115710559F08830910540F42491209323
:103E8000F1003196615071090196F2CF21E0089757
:103E900009F020E08091E8008E778093E800CBCF96
:103EA0002111CCCF0AC080916C02882361F085304B
:103EB00061F08091E80083FD0AC08091E80082FFF4
:103EC000F2CF80E0089582E0089583E0089581E0D4
:103ED0000895982F973068F59093E900981739F076
:103EE0007091EC002091ED005091F00003C0242F60
:103EF000762F50E021FD02C09F5FECCF3091EB00A8
:103F00003E7F3093EB003091ED003D7F3093ED002C
:103F10003091EB0031603093EB007093EC00209314
:103F2000ED005093F0002091EE0027FDE5CF80E0FA
:103F300008958F708093E90081E0089580916D026B
:103F400087FF11C08091E80082FD05C080916C025E
:103F50008111F8CF11C08091E8008B770BC0809160
:103F60006C02882349F08091E80080FFF8CF8091AF
:103F7000E8008E778093E80008952091E400309166
:103F8000E50095E64091EC00842F817040FF23C04E
:103F90008091E80080FD1DC080916C02882399F01B
:103FA000853099F08091EB0085FD11C04091E400CF
:103FB0005091E5002417350729F3915011F09A012B
:103FC000E1CF84E0089582E0089583E0089581E0E0
:103FD000089580E008954091E80042FFDDCF089504
:103FE0000E945E200E946620E0EEF0E08081816009
:103FF0008083E8EDF0E080818F77808319BCA7EDA6
:10400000B0E08C918E7F8C9380818F7E8083109224
:104010006B0208950F931F93CF93DF930E945E204E
:104020000E946620C8EDD0E088818F7788838881E0
:104030008068888388818F7D888319BC10926C0288
:104040001092680210926A021092690200EE10E06B
:10405000F80180818B7F808388818160888342E042
:1040600060E080E00E94691FE1EEF0E080818E7FD9
:104070008083E2EEF0E080818160808380818860CF
:104080008083F80180818E7F80838881806188832E
:10409000DF91CF911F910F910895E8EDF0E08081BD
:1040A0008F7E8083E7EDF0E080818160808384E013
:1040B00082BF81E080936B020C940A20E8EDF0E06F
:1040C00080818E7F80831092E20008951092DA0042
:1040D0001092E10008951F920F920FB60F921124D3
:1040E0002F933F934F935F936F937F938F939F9300
:1040F000AF93BF93EF93FF938091E10082FF0BC0DA
:104100008091E20082FF07C08091E1008B7F809365
:10411000E1000E94E1228091DA0080FF1FC08091BF
:10412000D80080FF1BC08091DA008E7F8093DA0078
:104130008091D90080FF0DC080E189BD82E189BDF9
:1041400009B400FEFDCF81E080936C020E94CD1C7B
:1041500005C019BC10926C020E94DB1C8091E1002A
:1041600080FF19C08091E20080FF15C08091E200BD
:104170008E7F8093E2008091E20080618093E20074
:104180008091D80080628093D80019BC85E080932C
:104190006C020E94DF1C8091E10084FF30C080919E
:1041A000E20084FF2CC080E189BD82E189BD09B4B1
:1041B00000FEFDCF8091D8008F7D8093D800809144
:1041C000E1008F7E8093E1008091E2008F7E8093FA
:1041D000E2008091E20081608093E20080916802B9
:1041E000882311F084E007C08091E30087FD02C0BE
:1041F00081E001C083E080936C020E94E01C80910A
:10420000E10083FF29C08091E20083FF25C08091F7
:10421000E100877F8093E10082E080936C0210923E
:1042200068028091E1008E7F8093E1008091E2003E
:104230008E7F8093E2008091E20080618093E200B3
:1042400042E060E080E00E94691F8091F000886099
:104250008093F0000E94DE1CFF91EF91BF91AF911F
:104260009F918F917F916F915F914F913F912F918E
:104270000F900FBE0F901F9018951F920F920FB6C0
:104280000F9211242F933F934F935F936F937F93DC
:104290008F939F93AF93BF93CF93DF93EF93FF934E
:1042A000C091E900CF708091EC00D82FD17080FDD3
:1042B000D0E81092E9008091F000877F8093F000B1
:1042C00078940E9481211092E9008091F00088602A
:1042D0008093F000CD2BCF70C093E900FF91EF9158
:1042E000DF91CF91BF91AF919F918F917F916F910E
:1042F0005F914F913F912F910F900FBE0F901F90A4
:1043000018951F93CF93DF93CDB7DEB7AA970FB65B
:10431000F894DEBF0FBECDBFEDE6F2E08091F10074
:10432000819322E0E537F207C9F70E94EC1C8091E7
:10433000E80083FF2EC180916D0290916E02492F9B
:1043400050E04A30510508F024C1FA01EC58FF4F03
:104350000C941123803821F0823809F01AC108C06A
:104360008091690290916A02992389F082600FC05E
:10437000809171028F70873008F00BC18093E90043
:104380008091EB0085FB882780F91092E9009091DD
:10439000E800977F9093E8008093F1001092F1007D
:1043A000D1C0282F2D7F09F0F4C0882319F0823066
:1043B00061F0EFC080916F02813009F0EAC0933064
:1043C00009F080E080936A022EC080916F02811113
:1043D0002AC0809171028F702FEF280F263008F0CD
:1043E000D8C08093E9002091EB0020FF1CC09330DF
:1043F00021F48091EB00806214C09091EB009061F9
:104400009093EB0021E030E0A90102C0440F551F5A
:104410008A95E2F74093EA001092EA008091EB005F
:1044200088608093EB001092E9008091E800877F1C
:104430008093E8000E949E1FACC08111AAC0109119
:104440006F021F778091E3008078812B8093E300D7
:104450008091E800877F8093E8000E949E1F8091F2
:10446000E80080FFFCCF8091E30080688093E30048
:10447000111102C082E001C083E080936C0289C008
:104480008058823008F085C080916F029091700250
:104490008C3D53E0950779F583E08A838AE289832E
:1044A0004FB7F894DE01139620E03EE051E2E32F8F
:1044B000F0E050935700E49120FF03C0E295EF70C5
:1044C0003F5FEF708E2F90E0EA3010F0C79601C08A
:1044D000C0968D939D932F5F243149F74FBF8091F4
:1044E000E800877F8093E8006AE270E0CE010196E1
:1044F0000E94AA1E16C06091710270917202AE01F4
:104500004F5F5F4F0E94E81DBC01892B09F441C039
:104510009091E800977F9093E80089819A810E94AA
:10452000081F8091E8008B778093E80032C08038C4
:1045300081F58091E800877F8093E8008091680290
:104540008093F1008091E8008E7772CF811121C0B5
:1045500080916F029091700299270297D4F4809114
:10456000E800877F8093E80080916F028093680263
:104570000E949E1F80916802811106C08091E30015
:1045800087FD02C081E001C084E080936C020E943C
:10459000E21C8091E80083FF0AC08091E800877FD9
:1045A0008093E8008091EB0080628093EB00AA96F4
:1045B0000FB6F894DEBF0FBECDBFDF91CF911F9134
:1045C00008950895CF9380916C028823A1F0C09143
:1045D000E900CF709091EC00892F817090FD80E808
:1045E000C82B1092E9008091E80083FD0E94812190
:1045F000CF70C093E900CF91089597FB072E16F472
:10460000009407D077FD09D00E94172307FC05D03E
:104610003EF4909581959F4F0895709561957F4FD9
:104620000895EE0FFF1F0590F491E02D0994AA1B49
:10463000BB1B51E107C0AA1FBB1FA617B70710F08D
:10464000A61BB70B881F991F5A95A9F780959095BF
:10465000BC01CD010895F999FECF92BD81BDF89AB4
:10466000992780B50895A8E1B0E042E050E00C94AD
:104670005F23262FF999FECF92BD81BDF89A01974D
:1046800000B4021639F01FBA20BD0FB6F894FA9A9A
:10469000F99A0FBE08950396272F0E943A230E948D
:1046A0003923252F0E943A23242F0C943A23019674
:1046B000272F0E943A230C943923DC01CB01FC0103
:1046C000F999FECF06C0F2BDE1BDF89A319600B46B
:0E46D0000D9241505040B8F70895F894FFCF76
:1046DE00C80001FC012808644006102F1C8C1C6DBC
:1046EE001C691C651C01E200E900EA00B500B60079
:1046FE00B700CD008301CC008A0192019401210202
:10470E00230224022502260227022A02B300B40045
:10471E006F007000818283F6F7313332363534C63E
:10472E009766949091E200E900EA00B500B600B7F2
:10473E0000CD008301CC008A019201940121022355
:10474E000224022502260227022A02B300B4006FB9
:06475E000070008182835F
:00000001FF
